BL51 BANKED LINKER/LOCATER V6.22.4.0                                                    05/20/2024  13:14:13  PAGE 1


BL51 BANKED LINKER/LOCATER V6.22.4.0, INVOKED BY:
E:\KEIL_V5\C51\BIN\BL51.EXE .\Objects\main.obj, .\Objects\smg.obj, .\Objects\OneWire.obj, .\Objects\DS18B20.obj TO .\Obj
>> ects\Project PRINT (.\Listings\Project.m51) RAMSIZE (256)


MEMORY MODEL: SMALL WITH FLOATING POINT ARITHMETIC


INPUT MODULES INCLUDED:
  .\Objects\main.obj (MAIN)
  .\Objects\smg.obj (SMG)
  .\Objects\OneWire.obj (ONEWIRE)
  .\Objects\DS18B20.obj (DS18B20)
  E:\KEIL_V5\C51\LIB\C51FPS.LIB (?C?FPMUL)
  E:\KEIL_V5\C51\LIB\C51FPS.LIB (?C?FPDIV)
  E:\KEIL_V5\C51\LIB\C51FPS.LIB (?C?FPCMP)
  E:\KEIL_V5\C51\LIB\C51FPS.LIB (?C?FPNEG)
  E:\KEIL_V5\C51\LIB\C51FPS.LIB (?C?FCAST)
  E:\KEIL_V5\C51\LIB\C51FPS.LIB (?C?CASTF)
  E:\KEIL_V5\C51\LIB\C51FPS.LIB (?C?FPGETOPN)
  E:\KEIL_V5\C51\LIB\C51S.LIB (?C_STARTUP)
  E:\KEIL_V5\C51\LIB\C51S.LIB (?C?SLDIV)
  E:\KEIL_V5\C51\LIB\C51S.LIB (?C?LNEG)
  E:\KEIL_V5\C51\LIB\C51S.LIB (?C_INIT)
  E:\KEIL_V5\C51\LIB\C51S.LIB (?C?ULDIV)


LINK MAP OF MODULE:  .\Objects\Project (MAIN)


            TYPE    BASE      LENGTH    RELOCATION   SEGMENT NAME
            -----------------------------------------------------

            * * * * * * *   D A T A   M E M O R Y   * * * * * * *
            REG     0000H     0008H     ABSOLUTE     "REG BANK 0"
            DATA    0008H     001CH     UNIT         ?DT?SMG
            DATA    0024H     0010H     UNIT         _DATA_GROUP_
            DATA    0034H     0005H     UNIT         ?DT?MAIN
            IDATA   0039H     0001H     UNIT         ?STACK

            * * * * * * *   C O D E   M E M O R Y   * * * * * * *
            CODE    0000H     0003H     ABSOLUTE     
            CODE    0003H     03CBH     UNIT         ?C?LIB_CODE
            CODE    03CEH     02A0H     UNIT         ?PR?_SMG_SHOWFLOATNUM?SMG
            CODE    066EH     008CH     UNIT         ?C_C51STARTUP
            CODE    06FAH     006FH     UNIT         ?PR?_NIXIE?SMG
            CODE    0769H     0044H     UNIT         ?C?LDIV
            CODE    07ADH     002BH     UNIT         ?PR?DS18B20_READT?DS18B20
            CODE    07D8H     0025H     UNIT         ?PR?MAIN?MAIN
            CODE    07FDH     001FH     UNIT         ?C_INITSEG
            CODE    081CH     001DH     UNIT         ?PR?ONEWIRE_RECEIVEBYTE?ONEWIRE
            CODE    0839H     0019H     UNIT         ?PR?ALL_INIT?SMG
            CODE    0852H     0019H     UNIT         ?PR?_ONEWIRE_SENDBYTE?ONEWIRE
            CODE    086BH     0018H     UNIT         ?PR?_DELAY_MS?SMG
            CODE    0883H     0018H     UNIT         ?PR?ONEWIRE_RECEIVEBIT?ONEWIRE
            CODE    089BH     0017H     UNIT         ?PR?ONEWIRE_INIT?ONEWIRE
            CODE    08B2H     0012H     UNIT         ?PR?_ONEWIRE_SENDBIT?ONEWIRE
            CODE    08C4H     000DH     UNIT         ?PR?DS18B20_CONVERTT?DS18B20
BL51 BANKED LINKER/LOCATER V6.22.4.0                                                  05/20/2024  13:14:13  PAGE 2


            CODE    08D1H     000BH     UNIT         ?PR?DELAY500US?ONEWIRE



OVERLAY MAP OF MODULE:   .\Objects\Project (MAIN)


SEGMENT                                   DATA_GROUP 
  +--> CALLED SEGMENT                   START    LENGTH
-------------------------------------------------------
?C_C51STARTUP                           -----    -----
  +--> ?PR?MAIN?MAIN
  +--> ?C_INITSEG

?PR?MAIN?MAIN                           -----    -----
  +--> ?PR?ALL_INIT?SMG
  +--> ?PR?ONEWIRE_INIT?ONEWIRE
  +--> ?PR?DS18B20_CONVERTT?DS18B20
  +--> ?PR?_DELAY_MS?SMG
  +--> ?PR?DS18B20_READT?DS18B20
  +--> ?PR?_SMG_SHOWFLOATNUM?SMG

?PR?ONEWIRE_INIT?ONEWIRE                -----    -----
  +--> ?PR?DELAY500US?ONEWIRE

?PR?DS18B20_CONVERTT?DS18B20            -----    -----
  +--> ?PR?ONEWIRE_INIT?ONEWIRE
  +--> ?PR?_ONEWIRE_SENDBYTE?ONEWIRE

?PR?_ONEWIRE_SENDBYTE?ONEWIRE           -----    -----
  +--> ?PR?_ONEWIRE_SENDBIT?ONEWIRE

?PR?DS18B20_READT?DS18B20               0024H    0001H
  +--> ?PR?ONEWIRE_INIT?ONEWIRE
  +--> ?PR?_ONEWIRE_SENDBYTE?ONEWIRE
  +--> ?PR?ONEWIRE_RECEIVEBYTE?ONEWIRE

?PR?ONEWIRE_RECEIVEBYTE?ONEWIRE         -----    -----
  +--> ?PR?ONEWIRE_RECEIVEBIT?ONEWIRE

?PR?_SMG_SHOWFLOATNUM?SMG               0024H    0010H
  +--> ?PR?_NIXIE?SMG

?PR?_NIXIE?SMG                          -----    -----
  +--> ?PR?_DELAY_MS?SMG



SYMBOL TABLE OF MODULE:  .\Objects\Project (MAIN)

  VALUE           TYPE          NAME
  ----------------------------------

  -------         MODULE        MAIN
  C:0000H         SYMBOL        _ICE_DUMMY_
  D:0080H         PUBLIC        P0
  D:0090H         PUBLIC        P1
BL51 BANKED LINKER/LOCATER V6.22.4.0                                                  05/20/2024  13:14:13  PAGE 3


  D:00A0H         PUBLIC        P2
  D:00B0H         PUBLIC        P3
  D:00C0H         PUBLIC        P4
  D:00C8H         PUBLIC        P5
  D:00E8H         PUBLIC        P6
  D:00F8H         PUBLIC        P7
  D:00A8H         PUBLIC        IE
  D:0034H         PUBLIC        Temp
  D:00B8H         PUBLIC        IP
  D:00D8H         PUBLIC        CCON
  C:07D8H         PUBLIC        main
  D:0038H         PUBLIC        ack
  D:0098H         PUBLIC        SCON
  D:0088H         PUBLIC        TCON
  D:00D0H         PUBLIC        PSW
  -------         PROC          MAIN
  C:07D8H         LINE#         9
  C:07D8H         LINE#         10
  C:07D8H         LINE#         11
  C:07DBH         LINE#         12
  C:07E0H         LINE#         14
  C:07E3H         LINE#         15
  C:07EAH         LINE#         17
  C:07EAH         LINE#         18
  C:07EAH         LINE#         19
  C:07EDH         LINE#         20
  C:07F8H         LINE#         22
  C:07FBH         LINE#         28
  -------         ENDPROC       MAIN
  -------         ENDMOD        MAIN

  -------         MODULE        SMG
  C:0000H         SYMBOL        _ICE_DUMMY_
  C:06FEH         PUBLIC        _Nixie
  D:0080H         PUBLIC        P0
  D:0090H         PUBLIC        P1
  D:00A0H         PUBLIC        P2
  D:00B0H         PUBLIC        P3
  D:00C0H         PUBLIC        P4
  D:00C8H         PUBLIC        P5
  D:00E8H         PUBLIC        P6
  D:00F8H         PUBLIC        P7
  D:00A8H         PUBLIC        IE
  C:0839H         PUBLIC        All_Init
  C:03CEH         PUBLIC        _SMG_ShowFloatNum
  D:00B8H         PUBLIC        IP
  D:00D8H         PUBLIC        CCON
  C:086BH         PUBLIC        _Delay_ms
  D:0098H         PUBLIC        SCON
  D:0088H         PUBLIC        TCON
  D:0008H         PUBLIC        NixieTable
  D:00D0H         PUBLIC        PSW
  -------         PROC          _DELAY_MS
  D:0006H         SYMBOL        xms
  -------         DO            
  D:0005H         SYMBOL        i
  D:0004H         SYMBOL        j
BL51 BANKED LINKER/LOCATER V6.22.4.0                                                  05/20/2024  13:14:13  PAGE 4


  -------         ENDDO         
  C:086BH         LINE#         5
  C:086BH         LINE#         6
  C:086BH         LINE#         8
  C:0875H         LINE#         9
  C:0878H         LINE#         10
  C:087CH         LINE#         11
  C:087CH         LINE#         12
  C:087EH         LINE#         13
  C:0880H         LINE#         14
  C:0882H         LINE#         15
  -------         ENDPROC       _DELAY_MS
  C:06FAH         SYMBOL        L?0047
  -------         PROC          L?0046
  -------         ENDPROC       L?0046
  C:06FAH         SYMBOL        L?0047
  -------         PROC          _NIXIE
  D:0007H         SYMBOL        location
  D:0005H         SYMBOL        number
  C:06FEH         LINE#         34
  C:06FEH         LINE#         35
  C:06FEH         LINE#         36
  C:0701H         LINE#         37
  C:072EH         LINE#         38
  C:072EH         LINE#         39
  C:0733H         LINE#         40
  C:0738H         LINE#         41
  C:073DH         LINE#         42
  C:0742H         LINE#         43
  C:0747H         LINE#         44
  C:074CH         LINE#         45
  C:0751H         LINE#         46
  C:0754H         LINE#         47
  C:0754H         LINE#         48
  C:0757H         LINE#         49
  C:075EH         LINE#         50
  C:0765H         LINE#         51
  C:0768H         LINE#         52
  -------         ENDPROC       _NIXIE
  -------         PROC          _SMG_SHOWFLOATNUM
  D:0024H         SYMBOL        num
  -------         DO            
  D:0028H         SYMBOL        Sep_Num
  D:0030H         SYMBOL        temp
  -------         ENDDO         
  C:03CEH         LINE#         55
  C:03D6H         LINE#         56
  C:03D6H         LINE#         60
  C:03E8H         LINE#         61
  C:03F9H         LINE#         63
  C:0419H         LINE#         66
  C:0439H         LINE#         67
  C:0459H         LINE#         68
  C:0478H         LINE#         69
  C:0497H         LINE#         70
  C:04B5H         LINE#         71
  C:04D3H         LINE#         72
BL51 BANKED LINKER/LOCATER V6.22.4.0                                                  05/20/2024  13:14:13  PAGE 5


  C:04E8H         LINE#         75
  C:04F2H         LINE#         76
  C:04F9H         LINE#         77
  C:0500H         LINE#         78
  C:0507H         LINE#         80
  C:0534H         LINE#         81
  C:0563H         LINE#         82
  C:0591H         LINE#         83
  C:05C7H         LINE#         84
  C:0603H         LINE#         85
  C:063EH         LINE#         86
  C:066DH         LINE#         87
  -------         ENDPROC       _SMG_SHOWFLOATNUM
  -------         PROC          ALL_INIT
  C:0839H         LINE#         133
  C:0839H         LINE#         134
  C:0839H         LINE#         135
  C:083CH         LINE#         136
  C:083FH         LINE#         138
  C:0842H         LINE#         139
  C:0845H         LINE#         141
  C:0848H         LINE#         142
  C:084BH         LINE#         143
  C:084EH         LINE#         144
  C:0851H         LINE#         145
  -------         ENDPROC       ALL_INIT
  -------         ENDMOD        SMG

  -------         MODULE        ONEWIRE
  C:0000H         SYMBOL        _ICE_DUMMY_
  D:0080H         PUBLIC        P0
  D:0090H         PUBLIC        P1
  D:00A0H         PUBLIC        P2
  D:00B0H         PUBLIC        P3
  D:00C0H         PUBLIC        P4
  D:00C8H         PUBLIC        P5
  D:00E8H         PUBLIC        P6
  C:0883H         PUBLIC        OneWire_ReceiveBit
  D:00F8H         PUBLIC        P7
  D:00A8H         PUBLIC        IE
  D:00B8H         PUBLIC        IP
  D:00D8H         PUBLIC        CCON
  B:0090H.4       PUBLIC        OneWire_DQ
  C:089BH         PUBLIC        OneWire_Init
  D:0098H         PUBLIC        SCON
  D:0088H         PUBLIC        TCON
  C:0852H         PUBLIC        _OneWire_SendByte
  C:08B2H         PUBLIC        _OneWire_SendBit
  C:08D1H         PUBLIC        Delay500us
  D:00D0H         PUBLIC        PSW
  C:081CH         PUBLIC        OneWire_ReceiveByte
  -------         PROC          DELAY500US
  -------         DO            
  D:0007H         SYMBOL        i
  D:0006H         SYMBOL        j
  -------         ENDDO         
  C:08D1H         LINE#         6
BL51 BANKED LINKER/LOCATER V6.22.4.0                                                  05/20/2024  13:14:13  PAGE 6


  C:08D1H         LINE#         7
  C:08D1H         LINE#         10
  C:08D3H         LINE#         11
  C:08D7H         LINE#         13
  C:08D7H         LINE#         14
  C:08D9H         LINE#         15
  C:08DBH         LINE#         16
  -------         ENDPROC       DELAY500US
  -------         PROC          ONEWIRE_INIT
  -------         DO            
  D:0005H         SYMBOL        AckBit
  D:0007H         SYMBOL        i
  -------         ENDDO         
  C:089BH         LINE#         23
  C:089BH         LINE#         24
  C:089BH         LINE#         27
  C:089DH         LINE#         28
  C:089FH         LINE#         29
  C:08A2H         LINE#         31
  C:08A4H         LINE#         32
  C:08A8H         LINE#         33
  C:08ADH         LINE#         35
  C:08B0H         LINE#         36
  C:08B1H         LINE#         37
  -------         ENDPROC       ONEWIRE_INIT
  -------         PROC          _ONEWIRE_SENDBIT
  D:0007H         SYMBOL        Bit
  -------         DO            
  D:0006H         SYMBOL        i
  -------         ENDDO         
  C:08B2H         LINE#         44
  C:08B2H         LINE#         45
  C:08B2H         LINE#         47
  C:08B4H         LINE#         48
  C:08B8H         LINE#         49
  C:08BDH         LINE#         50
  C:08C1H         LINE#         51
  C:08C3H         LINE#         52
  -------         ENDPROC       _ONEWIRE_SENDBIT
  -------         PROC          ONEWIRE_RECEIVEBIT
  -------         DO            
  D:0007H         SYMBOL        i
  D:0006H         SYMBOL        Bit
  -------         ENDDO         
  C:0883H         LINE#         58
  C:0883H         LINE#         59
  C:0883H         LINE#         62
  C:0885H         LINE#         63
  C:0889H         LINE#         65
  C:088BH         LINE#         66
  C:088FH         LINE#         67
  C:0894H         LINE#         68
  C:0898H         LINE#         71
  C:089AH         LINE#         72
  -------         ENDPROC       ONEWIRE_RECEIVEBIT
  -------         PROC          _ONEWIRE_SENDBYTE
  D:0005H         SYMBOL        Byte
BL51 BANKED LINKER/LOCATER V6.22.4.0                                                  05/20/2024  13:14:13  PAGE 7


  -------         DO            
  D:0004H         SYMBOL        i
  -------         ENDDO         
  C:0852H         LINE#         75
  C:0854H         LINE#         76
  C:0854H         LINE#         78
  C:0856H         LINE#         79
  C:0856H         LINE#         80
  C:0866H         LINE#         81
  C:086AH         LINE#         82
  -------         ENDPROC       _ONEWIRE_SENDBYTE
  -------         PROC          ONEWIRE_RECEIVEBYTE
  -------         DO            
  D:0004H         SYMBOL        i
  D:0005H         SYMBOL        Byte
  -------         ENDDO         
  C:081CH         LINE#         85
  C:081CH         LINE#         86
  C:081CH         LINE#         88
  C:081EH         LINE#         89
  C:081FH         LINE#         90
  C:081FH         LINE#         92
  C:0825H         LINE#         93
  C:0832H         LINE#         94
  C:0836H         LINE#         95
  C:0838H         LINE#         96
  -------         ENDPROC       ONEWIRE_RECEIVEBYTE
  -------         ENDMOD        ONEWIRE

  -------         MODULE        DS18B20
  C:0000H         SYMBOL        _ICE_DUMMY_
  D:0080H         PUBLIC        P0
  D:0090H         PUBLIC        P1
  D:00A0H         PUBLIC        P2
  D:00B0H         PUBLIC        P3
  D:00C0H         PUBLIC        P4
  D:00C8H         PUBLIC        P5
  D:00E8H         PUBLIC        P6
  D:00F8H         PUBLIC        P7
  D:00A8H         PUBLIC        IE
  D:00B8H         PUBLIC        IP
  D:00D8H         PUBLIC        CCON
  D:0098H         PUBLIC        SCON
  D:0088H         PUBLIC        TCON
  C:08C4H         PUBLIC        DS18B20_ConvertT
  C:07ADH         PUBLIC        DS18B20_ReadT
  D:00D0H         PUBLIC        PSW
  -------         PROC          DS18B20_CONVERTT
  C:08C4H         LINE#         7
  C:08C4H         LINE#         8
  C:08C4H         LINE#         9
  C:08C7H         LINE#         10
  C:08CCH         LINE#         11
  -------         ENDPROC       DS18B20_CONVERTT
  -------         PROC          DS18B20_READT
  -------         DO            
  D:0024H         SYMBOL        TLSB
BL51 BANKED LINKER/LOCATER V6.22.4.0                                                  05/20/2024  13:14:13  PAGE 8


  D:0007H         SYMBOL        TMSB
  D:0006H         SYMBOL        temp
  D:0004H         SYMBOL        T
  -------         ENDDO         
  C:07ADH         LINE#         14
  C:07ADH         LINE#         15
  C:07ADH         LINE#         21
  C:07B0H         LINE#         22
  C:07B5H         LINE#         23
  C:07BAH         LINE#         26
  C:07BFH         LINE#         27
  C:07C2H         LINE#         32
  C:07C7H         LINE#         37
  -------         ENDPROC       DS18B20_READT
  -------         ENDMOD        DS18B20

  -------         MODULE        ?C?FPMUL
  C:0003H         PUBLIC        ?C?FPMUL
  -------         ENDMOD        ?C?FPMUL

  -------         MODULE        ?C?FPDIV
  C:010CH         PUBLIC        ?C?FPDIV
  -------         ENDMOD        ?C?FPDIV

  -------         MODULE        ?C?FPCMP
  C:01ABH         PUBLIC        ?C?FPCMP
  C:01A9H         PUBLIC        ?C?FPCMP3
  -------         ENDMOD        ?C?FPCMP

  -------         MODULE        ?C?FPNEG
  C:0222H         PUBLIC        ?C?FPNEG
  -------         ENDMOD        ?C?FPNEG

  -------         MODULE        ?C?FCAST
  C:023DH         PUBLIC        ?C?FCASTC
  C:0238H         PUBLIC        ?C?FCASTI
  C:0233H         PUBLIC        ?C?FCASTL
  -------         ENDMOD        ?C?FCAST

  -------         MODULE        ?C?CASTF
  C:0271H         PUBLIC        ?C?CASTF
  -------         ENDMOD        ?C?CASTF

  -------         MODULE        ?C?SLDIV
  C:0769H         PUBLIC        ?C?SLDIV
  -------         ENDMOD        ?C?SLDIV

  -------         MODULE        ?C?LNEG
  C:02F2H         PUBLIC        ?C?LNEG
  -------         ENDMOD        ?C?LNEG

  -------         MODULE        ?C?ULDIV
  C:033CH         PUBLIC        ?C?ULDIV
  -------         ENDMOD        ?C?ULDIV

Program Size: data=58.0 xdata=0 code=2268
LINK/LOCATE RUN COMPLETE.  0 WARNING(S),  0 ERROR(S)
