BL51 BANKED LINKER/LOCATER V6.22.4.0                                                    05/11/2024  16:32:46  PAGE 1


BL51 BANKED LINKER/LOCATER V6.22.4.0, INVOKED BY:
E:\KEIL_V5\C51\BIN\BL51.EXE .\Objects\main.obj, .\Objects\Delay.obj, .\Objects\SEG.obj TO .\Objects\SMG PRINT (.\Listing
>> s\SMG.m51) RAMSIZE (256)


MEMORY MODEL: SMALL


INPUT MODULES INCLUDED:
  .\Objects\main.obj (MAIN)
  .\Objects\Delay.obj (DELAY)
  .\Objects\SEG.obj (SEG)
  E:\KEIL_V5\C51\LIB\C51S.LIB (?C_STARTUP)
  E:\KEIL_V5\C51\LIB\C51S.LIB (?C_INIT)


LINK MAP OF MODULE:  .\Objects\SMG (MAIN)


            TYPE    BASE      LENGTH    RELOCATION   SEGMENT NAME
            -----------------------------------------------------

            * * * * * * *   D A T A   M E M O R Y   * * * * * * *
            REG     0000H     0008H     ABSOLUTE     "REG BANK 0"
            DATA    0008H     0005H     UNIT         ?DT?MAIN
            IDATA   000DH     0001H     UNIT         ?STACK

            * * * * * * *   C O D E   M E M O R Y   * * * * * * *
            CODE    0000H     0003H     ABSOLUTE     
            CODE    0003H     008CH     UNIT         ?C_C51STARTUP
            CODE    008FH     002CH     UNIT         ?PR?_SEG_DISPLAY?SEG
            CODE    00BBH     0024H     UNIT         ?PR?MAIN?MAIN
            CODE    00DFH     0019H     UNIT         ?PR?SYSTEM_INIT?DELAY
            CODE    00F8H     0016H     UNIT         ?CO?SEG
            CODE    010EH     0015H     UNIT         ?PR?_DELAY?DELAY
            CODE    0123H     0007H     UNIT         ?C_INITSEG



OVERLAY MAP OF MODULE:   .\Objects\SMG (MAIN)


SEGMENT
  +--> CALLED SEGMENT
---------------------
?C_C51STARTUP
  +--> ?PR?MAIN?MAIN
  +--> ?C_INITSEG

?PR?MAIN?MAIN
  +--> ?PR?SYSTEM_INIT?DELAY
  +--> ?PR?_SEG_DISPLAY?SEG
  +--> ?PR?_DELAY?DELAY

?PR?_SEG_DISPLAY?SEG
  +--> ?CO?SEG
  +--> ?PR?_DELAY?DELAY

BL51 BANKED LINKER/LOCATER V6.22.4.0                                                  05/11/2024  16:32:46  PAGE 2




SYMBOL TABLE OF MODULE:  .\Objects\SMG (MAIN)

  VALUE           TYPE          NAME
  ----------------------------------

  -------         MODULE        MAIN
  C:0000H         SYMBOL        _ICE_DUMMY_
  D:0080H         PUBLIC        P0
  D:0090H         PUBLIC        P1
  D:00A0H         PUBLIC        P2
  D:00B0H         PUBLIC        P3
  D:00C0H         PUBLIC        P4
  D:00C8H         PUBLIC        P5
  D:00E8H         PUBLIC        P6
  D:00F8H         PUBLIC        P7
  D:0008H         PUBLIC        number
  D:00A8H         PUBLIC        IE
  D:00B8H         PUBLIC        IP
  D:00D8H         PUBLIC        CCON
  C:00BBH         PUBLIC        main
  D:0098H         PUBLIC        SCON
  D:0088H         PUBLIC        TCON
  D:000CH         PUBLIC        i
  D:00D0H         PUBLIC        PSW
  -------         PROC          MAIN
  C:00BBH         LINE#         61
  C:00BBH         LINE#         62
  C:00BBH         LINE#         63
  C:00BEH         LINE#         64
  C:00BEH         LINE#         65
  C:00BEH         LINE#         66
  C:00C1H         LINE#         67
  C:00C1H         LINE#         68
  C:00CDH         LINE#         69
  C:00D4H         LINE#         71
  -------         ENDPROC       MAIN
  -------         ENDMOD        MAIN

  -------         MODULE        DELAY
  C:0000H         SYMBOL        _ICE_DUMMY_
  C:00DFH         PUBLIC        System_Init
  D:0080H         PUBLIC        P0
  D:0090H         PUBLIC        P1
  D:00A0H         PUBLIC        P2
  D:00B0H         PUBLIC        P3
  D:00C0H         PUBLIC        P4
  D:00C8H         PUBLIC        P5
  D:00E8H         PUBLIC        P6
  D:00F8H         PUBLIC        P7
  D:00A8H         PUBLIC        IE
  D:00B8H         PUBLIC        IP
  D:00D8H         PUBLIC        CCON
  D:0098H         PUBLIC        SCON
  D:0088H         PUBLIC        TCON
  C:010EH         PUBLIC        _Delay
BL51 BANKED LINKER/LOCATER V6.22.4.0                                                  05/11/2024  16:32:46  PAGE 3


  D:00D0H         PUBLIC        PSW
  -------         PROC          _DELAY
  D:0006H         SYMBOL        xms
  -------         DO            
  D:0005H         SYMBOL        i
  D:0004H         SYMBOL        j
  -------         ENDDO         
  C:010EH         LINE#         3
  C:010EH         LINE#         4
  C:010EH         LINE#         6
  C:0118H         LINE#         7
  C:0118H         LINE#         8
  C:011AH         LINE#         9
  C:011CH         LINE#         11
  C:011CH         LINE#         12
  C:011EH         LINE#         13
  C:0120H         LINE#         14
  C:0122H         LINE#         15
  -------         ENDPROC       _DELAY
  -------         PROC          SYSTEM_INIT
  C:00DFH         LINE#         17
  C:00DFH         LINE#         18
  C:00DFH         LINE#         19
  C:00E5H         LINE#         20
  C:00EBH         LINE#         21
  C:00F1H         LINE#         22
  C:00F7H         LINE#         23
  -------         ENDPROC       SYSTEM_INIT
  -------         ENDMOD        DELAY

  -------         MODULE        SEG
  C:0000H         SYMBOL        _ICE_DUMMY_
  D:0080H         PUBLIC        P0
  D:0090H         PUBLIC        P1
  D:00A0H         PUBLIC        P2
  D:00B0H         PUBLIC        P3
  D:00C0H         PUBLIC        P4
  D:00C8H         PUBLIC        P5
  D:00E8H         PUBLIC        P6
  D:00F8H         PUBLIC        P7
  D:00A8H         PUBLIC        IE
  D:00B8H         PUBLIC        IP
  C:008FH         PUBLIC        _SEG_Display
  D:00D8H         PUBLIC        CCON
  D:0098H         PUBLIC        SCON
  D:0088H         PUBLIC        TCON
  B:00A0H.5       PUBLIC        P25
  B:00A0H.6       PUBLIC        P26
  B:00A0H.7       PUBLIC        P27
  C:00F8H         PUBLIC        SMG_Yang
  D:00D0H         PUBLIC        PSW
  -------         PROC          _SEG_DISPLAY
  D:0007H         SYMBOL        location
  D:0005H         SYMBOL        number
  C:008FH         LINE#         7
  C:008FH         LINE#         8
  C:008FH         LINE#         9
BL51 BANKED LINKER/LOCATER V6.22.4.0                                                  05/11/2024  16:32:46  PAGE 4


  C:0092H         LINE#         11
  C:0098H         LINE#         12
  C:00A7H         LINE#         14
  C:00ADH         LINE#         15
  C:00B4H         LINE#         16
  -------         ENDPROC       _SEG_DISPLAY
  -------         ENDMOD        SEG

Program Size: data=14.0 xdata=0 code=298
LINK/LOCATE RUN COMPLETE.  0 WARNING(S),  0 ERROR(S)
