BL51 BANKED LINKER/LOCATER V6.22.4.0                                                    05/27/2024  09:52:58  PAGE 1


BL51 BANKED LINKER/LOCATER V6.22.4.0, INVOKED BY:
E:\KEIL_V5\C51\BIN\BL51.EXE .\Objects\main.obj, .\Objects\Key.obj, .\Objects\SEG.obj, .\Objects\Delay.obj, .\Objects\Tim
>> er.obj TO .\Objects\SMG PRINT (.\Listings\SMG.m51) RAMSIZE (256) DISABLEWARNING (16)


MEMORY MODEL: SMALL


INPUT MODULES INCLUDED:
  .\Objects\main.obj (MAIN)
  .\Objects\Key.obj (KEY)
  .\Objects\SEG.obj (SEG)
  .\Objects\Delay.obj (DELAY)
  .\Objects\Timer.obj (TIMER)
  E:\KEIL_V5\C51\LIB\C51S.LIB (?C_STARTUP)
  E:\KEIL_V5\C51\LIB\C51S.LIB (?C_INIT)


LINK MAP OF MODULE:  .\Objects\SMG (MAIN)


            TYPE    BASE      LENGTH    RELOCATION   SEGMENT NAME
            -----------------------------------------------------

            * * * * * * *   D A T A   M E M O R Y   * * * * * * *
            REG     0000H     0008H     ABSOLUTE     "REG BANK 0"
            DATA    0008H     0016H     UNIT         ?DT?SEG
            DATA    001EH     0005H     UNIT         ?DT?MAIN
            DATA    0023H     0002H     UNIT         ?DT?KEY16_SCAN?KEY
            DATA    0025H     0002H     UNIT         ?DT?KEY16_SCAN_PROTEUS?KEY
            DATA    0027H     0001H     UNIT         ?DT?KEY4_SCAN?KEY
            IDATA   0028H     0001H     UNIT         ?STACK

            * * * * * * *   C O D E   M E M O R Y   * * * * * * *
            CODE    0000H     0003H     ABSOLUTE     
                    0003H     0008H                  *** GAP ***
            CODE    000BH     0003H     ABSOLUTE     
            CODE    000EH     0167H     UNIT         ?PR?KEY16_SCAN?KEY
            CODE    0175H     015EH     UNIT         ?PR?KEY16_SCAN_PROTEUS?KEY
            CODE    02D3H     008CH     UNIT         ?C_C51STARTUP
            CODE    035FH     0061H     UNIT         ?PR?KEY4_SCAN?KEY
            CODE    03C0H     0037H     UNIT         ?PR?MAIN?MAIN
            CODE    03F7H     0029H     UNIT         ?PR?_SEG_DISPLAY?SEG
            CODE    0420H     0022H     UNIT         ?PR?TIMER0_ROUNTINE?MAIN
            CODE    0442H     0019H     UNIT         ?C_INITSEG
            CODE    045BH     0019H     UNIT         ?PR?SYSTEM_INIT?DELAY
            CODE    0474H     0019H     UNIT         ?PR?POWER_ALL_INIT?TIMER
            CODE    048DH     0015H     UNIT         ?PR?_DELAY?DELAY
            CODE    04A2H     0015H     UNIT         ?PR?_DELAY_MS?DELAY
            CODE    04B7H     0015H     UNIT         ?PR?TIMER0_INIT?TIMER
            CODE    04CCH     0012H     UNIT         ?PR?TIMER2_INIT?TIMER



OVERLAY MAP OF MODULE:   .\Objects\SMG (MAIN)


SEGMENT
BL51 BANKED LINKER/LOCATER V6.22.4.0                                                  05/27/2024  09:52:58  PAGE 2


  +--> CALLED SEGMENT
---------------------
?C_C51STARTUP
  +--> ?PR?MAIN?MAIN
  +--> ?C_INITSEG

?PR?MAIN?MAIN
  +--> ?PR?SYSTEM_INIT?DELAY
  +--> ?PR?TIMER0_INIT?TIMER
  +--> ?PR?_SEG_DISPLAY?SEG

?PR?_SEG_DISPLAY?SEG
  +--> ?PR?_DELAY?DELAY



SYMBOL TABLE OF MODULE:  .\Objects\SMG (MAIN)

  VALUE           TYPE          NAME
  ----------------------------------

  -------         MODULE        MAIN
  C:0000H         SYMBOL        _ICE_DUMMY_
  D:0080H         PUBLIC        P0
  D:0090H         PUBLIC        P1
  D:00A0H         PUBLIC        P2
  D:00B0H         PUBLIC        P3
  D:00C0H         PUBLIC        P4
  D:00C8H         PUBLIC        P5
  D:00E8H         PUBLIC        P6
  D:00F8H         PUBLIC        P7
  D:0020H         PUBLIC        number
  D:00A8H         PUBLIC        IE
  D:00B8H         PUBLIC        IP
  D:00D8H         PUBLIC        CCON
  C:03C0H         PUBLIC        main
  D:0098H         PUBLIC        SCON
  D:0088H         PUBLIC        TCON
  D:0021H         PUBLIC        Key_Num
  D:0022H         PUBLIC        i
  C:0420H         PUBLIC        Timer0_Rountine
  D:00D0H         PUBLIC        PSW
  -------         PROC          MAIN
  C:03C0H         LINE#         12
  C:03C0H         LINE#         13
  C:03C0H         LINE#         15
  C:03C3H         LINE#         16
  C:03C6H         LINE#         18
  C:03C6H         LINE#         19
  C:03C6H         LINE#         20
  C:03D7H         LINE#         21
  C:03E8H         LINE#         22
  C:03F5H         LINE#         23
  -------         ENDPROC       MAIN
  -------         PROC          TIMER0_ROUNTINE
  -------         DO            
  D:001EH         SYMBOL        T0Count0
BL51 BANKED LINKER/LOCATER V6.22.4.0                                                  05/27/2024  09:52:58  PAGE 3


  -------         ENDDO         
  C:0420H         LINE#         26
  C:0424H         LINE#         30
  C:042CH         LINE#         31
  C:0435H         LINE#         32
  C:0435H         LINE#         34
  C:0437H         LINE#         35
  C:043DH         LINE#         36
  C:043DH         LINE#         37
  -------         ENDPROC       TIMER0_ROUNTINE
  -------         ENDMOD        MAIN

  -------         MODULE        KEY
  C:0000H         SYMBOL        _ICE_DUMMY_
  D:0080H         PUBLIC        P0
  D:0090H         PUBLIC        P1
  D:00A0H         PUBLIC        P2
  D:00B0H         PUBLIC        P3
  D:00C0H         PUBLIC        P4
  D:00C8H         PUBLIC        P5
  D:00E8H         PUBLIC        P6
  D:00F8H         PUBLIC        P7
  D:00A8H         PUBLIC        IE
  D:00B8H         PUBLIC        IP
  D:00D8H         PUBLIC        CCON
  B:00B0H.0       PUBLIC        P30
  D:0098H         PUBLIC        SCON
  B:00B0H.1       PUBLIC        P31
  D:0088H         PUBLIC        TCON
  B:00B0H.2       PUBLIC        P32
  B:00B0H.3       PUBLIC        P33
  C:035FH         PUBLIC        Key4_Scan
  C:0175H         PUBLIC        Key16_Scan_Proteus
  C:000EH         PUBLIC        Key16_Scan
  D:00D0H         PUBLIC        PSW
  -------         PROC          KEY4_SCAN
  -------         DO            
  D:0027H         SYMBOL        Keynumber
  -------         ENDDO         
  C:035FH         LINE#         4
  C:035FH         LINE#         5
  C:035FH         LINE#         6
  C:0362H         LINE#         7
  C:0378H         LINE#         8
  C:038FH         LINE#         9
  C:03A6H         LINE#         10
  C:03BDH         LINE#         11
  C:03BFH         LINE#         12
  -------         ENDPROC       KEY4_SCAN
  -------         PROC          KEY16_SCAN
  -------         DO            
  D:0023H         SYMBOL        KeyNumber
  D:0024H         SYMBOL        temp
  -------         ENDDO         
  C:000EH         LINE#         14
  C:000EH         LINE#         15
  C:000EH         LINE#         16
BL51 BANKED LINKER/LOCATER V6.22.4.0                                                  05/27/2024  09:52:58  PAGE 4


  C:0011H         LINE#         22
  C:0014H         LINE#         23
  C:0017H         LINE#         24
  C:001AH         LINE#         25
  C:001DH         LINE#         26
  C:0023H         LINE#         27
  C:0023H         LINE#         28
  C:002AH         LINE#         29
  C:002DH         LINE#         30
  C:0030H         LINE#         31
  C:0036H         LINE#         32
  C:0036H         LINE#         33
  C:0039H         LINE#         34
  C:004AH         LINE#         35
  C:004AH         LINE#         36
  C:004FH         LINE#         37
  C:0054H         LINE#         38
  C:0059H         LINE#         39
  C:005CH         LINE#         40
  C:005CH         LINE#         41
  C:0062H         LINE#         42
  C:0062H         LINE#         43
  C:0065H         LINE#         44
  C:0068H         LINE#         45
  C:006AH         LINE#         46
  C:006AH         LINE#         47
  C:006AH         LINE#         50
  C:006DH         LINE#         51
  C:0070H         LINE#         52
  C:0073H         LINE#         53
  C:0076H         LINE#         54
  C:007CH         LINE#         55
  C:007CH         LINE#         56
  C:0083H         LINE#         57
  C:0086H         LINE#         58
  C:0089H         LINE#         59
  C:008FH         LINE#         60
  C:008FH         LINE#         61
  C:0092H         LINE#         62
  C:00A3H         LINE#         63
  C:00A3H         LINE#         64
  C:00A8H         LINE#         65
  C:00ADH         LINE#         66
  C:00B2H         LINE#         67
  C:00B5H         LINE#         68
  C:00B5H         LINE#         69
  C:00BBH         LINE#         70
  C:00BBH         LINE#         71
  C:00BEH         LINE#         72
  C:00C1H         LINE#         73
  C:00C3H         LINE#         74
  C:00C3H         LINE#         75
  C:00C3H         LINE#         78
  C:00C6H         LINE#         79
  C:00C9H         LINE#         80
  C:00CCH         LINE#         81
  C:00CFH         LINE#         82
BL51 BANKED LINKER/LOCATER V6.22.4.0                                                  05/27/2024  09:52:58  PAGE 5


  C:00D5H         LINE#         83
  C:00D5H         LINE#         84
  C:00DCH         LINE#         85
  C:00DFH         LINE#         86
  C:00E2H         LINE#         87
  C:00E8H         LINE#         88
  C:00E8H         LINE#         89
  C:00EBH         LINE#         90
  C:00FCH         LINE#         91
  C:00FCH         LINE#         92
  C:0101H         LINE#         93
  C:0106H         LINE#         94
  C:010BH         LINE#         95
  C:010EH         LINE#         96
  C:010EH         LINE#         97
  C:0114H         LINE#         98
  C:0114H         LINE#         99
  C:0117H         LINE#         100
  C:011AH         LINE#         101
  C:011CH         LINE#         102
  C:011CH         LINE#         103
  C:011CH         LINE#         106
  C:011FH         LINE#         107
  C:0122H         LINE#         108
  C:0125H         LINE#         109
  C:012BH         LINE#         110
  C:012BH         LINE#         111
  C:0132H         LINE#         112
  C:0135H         LINE#         113
  C:0138H         LINE#         114
  C:013EH         LINE#         115
  C:013EH         LINE#         116
  C:0141H         LINE#         117
  C:0152H         LINE#         118
  C:0152H         LINE#         119
  C:0157H         LINE#         120
  C:015CH         LINE#         121
  C:0161H         LINE#         122
  C:0164H         LINE#         123
  C:0164H         LINE#         124
  C:016AH         LINE#         125
  C:016AH         LINE#         126
  C:016DH         LINE#         127
  C:0170H         LINE#         128
  C:0172H         LINE#         129
  C:0172H         LINE#         130
  C:0172H         LINE#         132
  C:0174H         LINE#         133
  -------         ENDPROC       KEY16_SCAN
  -------         PROC          KEY16_SCAN_PROTEUS
  -------         DO            
  D:0025H         SYMBOL        KeyNumber
  D:0026H         SYMBOL        temp
  -------         ENDDO         
  C:0175H         LINE#         141
  C:0175H         LINE#         142
  C:0175H         LINE#         143
BL51 BANKED LINKER/LOCATER V6.22.4.0                                                  05/27/2024  09:52:58  PAGE 6


  C:0178H         LINE#         149
  C:017BH         LINE#         151
  C:017EH         LINE#         152
  C:0181H         LINE#         153
  C:0187H         LINE#         154
  C:0187H         LINE#         155
  C:018EH         LINE#         156
  C:0191H         LINE#         157
  C:0194H         LINE#         158
  C:019AH         LINE#         159
  C:019AH         LINE#         160
  C:019DH         LINE#         161
  C:01AEH         LINE#         162
  C:01AEH         LINE#         163
  C:01B3H         LINE#         164
  C:01B8H         LINE#         165
  C:01BDH         LINE#         166
  C:01C0H         LINE#         167
  C:01C0H         LINE#         168
  C:01C6H         LINE#         169
  C:01C6H         LINE#         170
  C:01C9H         LINE#         171
  C:01CCH         LINE#         172
  C:01CEH         LINE#         173
  C:01CEH         LINE#         174
  C:01CEH         LINE#         177
  C:01D1H         LINE#         179
  C:01D4H         LINE#         180
  C:01D7H         LINE#         181
  C:01DDH         LINE#         182
  C:01DDH         LINE#         183
  C:01E4H         LINE#         184
  C:01E7H         LINE#         185
  C:01EAH         LINE#         186
  C:01F0H         LINE#         187
  C:01F0H         LINE#         188
  C:01F3H         LINE#         189
  C:0204H         LINE#         190
  C:0204H         LINE#         191
  C:0209H         LINE#         192
  C:020EH         LINE#         193
  C:0213H         LINE#         194
  C:0216H         LINE#         195
  C:0216H         LINE#         196
  C:021CH         LINE#         197
  C:021CH         LINE#         198
  C:021FH         LINE#         199
  C:0222H         LINE#         200
  C:0224H         LINE#         201
  C:0224H         LINE#         202
  C:0224H         LINE#         205
  C:0227H         LINE#         207
  C:022AH         LINE#         208
  C:022DH         LINE#         209
  C:0233H         LINE#         210
  C:0233H         LINE#         211
  C:023AH         LINE#         212
BL51 BANKED LINKER/LOCATER V6.22.4.0                                                  05/27/2024  09:52:58  PAGE 7


  C:023DH         LINE#         213
  C:0240H         LINE#         214
  C:0246H         LINE#         215
  C:0246H         LINE#         216
  C:0249H         LINE#         217
  C:025AH         LINE#         218
  C:025AH         LINE#         219
  C:025FH         LINE#         220
  C:0264H         LINE#         221
  C:0269H         LINE#         222
  C:026CH         LINE#         223
  C:026CH         LINE#         224
  C:0272H         LINE#         225
  C:0272H         LINE#         226
  C:0275H         LINE#         227
  C:0278H         LINE#         228
  C:027AH         LINE#         229
  C:027AH         LINE#         230
  C:027AH         LINE#         233
  C:027DH         LINE#         234
  C:0280H         LINE#         235
  C:0283H         LINE#         236
  C:0289H         LINE#         237
  C:0289H         LINE#         238
  C:0290H         LINE#         239
  C:0293H         LINE#         240
  C:0296H         LINE#         241
  C:029CH         LINE#         242
  C:029CH         LINE#         243
  C:029FH         LINE#         244
  C:02B0H         LINE#         245
  C:02B0H         LINE#         246
  C:02B5H         LINE#         247
  C:02BAH         LINE#         248
  C:02BFH         LINE#         249
  C:02C2H         LINE#         250
  C:02C2H         LINE#         251
  C:02C8H         LINE#         252
  C:02C8H         LINE#         253
  C:02CBH         LINE#         254
  C:02CEH         LINE#         255
  C:02D0H         LINE#         256
  C:02D0H         LINE#         257
  C:02D0H         LINE#         259
  C:02D2H         LINE#         260
  -------         ENDPROC       KEY16_SCAN_PROTEUS
  -------         ENDMOD        KEY

  -------         MODULE        SEG
  C:0000H         SYMBOL        _ICE_DUMMY_
  D:0080H         PUBLIC        P0
  D:0090H         PUBLIC        P1
  D:00A0H         PUBLIC        P2
  D:00B0H         PUBLIC        P3
  D:00C0H         PUBLIC        P4
  D:00C8H         PUBLIC        P5
  D:00E8H         PUBLIC        P6
BL51 BANKED LINKER/LOCATER V6.22.4.0                                                  05/27/2024  09:52:58  PAGE 8


  D:00F8H         PUBLIC        P7
  D:00A8H         PUBLIC        IE
  D:00B8H         PUBLIC        IP
  C:03F7H         PUBLIC        _SEG_Display
  D:00D8H         PUBLIC        CCON
  D:0098H         PUBLIC        SCON
  D:0088H         PUBLIC        TCON
  B:00A0H.5       PUBLIC        P25
  B:00A0H.6       PUBLIC        P26
  B:00A0H.7       PUBLIC        P27
  D:0008H         PUBLIC        SMG_Yang
  D:00D0H         PUBLIC        PSW
  -------         PROC          _SEG_DISPLAY
  D:0007H         SYMBOL        location
  D:0005H         SYMBOL        number
  C:03F7H         LINE#         10
  C:03F7H         LINE#         11
  C:03F7H         LINE#         14
  C:03FDH         LINE#         15
  C:040CH         LINE#         17
  C:0412H         LINE#         18
  C:0419H         LINE#         19
  -------         ENDPROC       _SEG_DISPLAY
  -------         ENDMOD        SEG

  -------         MODULE        DELAY
  C:0000H         SYMBOL        _ICE_DUMMY_
  C:045BH         PUBLIC        System_Init
  D:0080H         PUBLIC        P0
  D:0090H         PUBLIC        P1
  D:00A0H         PUBLIC        P2
  D:00B0H         PUBLIC        P3
  D:00C0H         PUBLIC        P4
  D:00C8H         PUBLIC        P5
  D:00E8H         PUBLIC        P6
  D:00F8H         PUBLIC        P7
  D:00A8H         PUBLIC        IE
  D:00B8H         PUBLIC        IP
  D:00D8H         PUBLIC        CCON
  C:04A2H         PUBLIC        _Delay_ms
  D:0098H         PUBLIC        SCON
  D:0088H         PUBLIC        TCON
  C:048DH         PUBLIC        _Delay
  D:00D0H         PUBLIC        PSW
  -------         PROC          _DELAY
  D:0006H         SYMBOL        xms
  -------         DO            
  D:0005H         SYMBOL        i
  D:0004H         SYMBOL        j
  -------         ENDDO         
  C:048DH         LINE#         4
  C:048DH         LINE#         5
  C:048DH         LINE#         7
  C:0497H         LINE#         8
  C:0497H         LINE#         9
  C:0499H         LINE#         10
  C:049BH         LINE#         12
BL51 BANKED LINKER/LOCATER V6.22.4.0                                                  05/27/2024  09:52:58  PAGE 9


  C:049BH         LINE#         13
  C:049DH         LINE#         14
  C:049FH         LINE#         15
  C:04A1H         LINE#         16
  -------         ENDPROC       _DELAY
  -------         PROC          _DELAY_MS
  D:0006H         SYMBOL        xms
  -------         DO            
  D:0005H         SYMBOL        i
  D:0004H         SYMBOL        j
  -------         ENDDO         
  C:04A2H         LINE#         18
  C:04A2H         LINE#         19
  C:04A2H         LINE#         21
  C:04ACH         LINE#         22
  C:04ACH         LINE#         23
  C:04AEH         LINE#         24
  C:04B0H         LINE#         26
  C:04B0H         LINE#         27
  C:04B2H         LINE#         28
  C:04B4H         LINE#         29
  C:04B6H         LINE#         30
  -------         ENDPROC       _DELAY_MS
  -------         PROC          SYSTEM_INIT
  C:045BH         LINE#         34
  C:045BH         LINE#         35
  C:045BH         LINE#         36
  C:0461H         LINE#         37
  C:0467H         LINE#         38
  C:046DH         LINE#         39
  C:0473H         LINE#         40
  -------         ENDPROC       SYSTEM_INIT
  -------         ENDMOD        DELAY

  -------         MODULE        TIMER
  C:0000H         SYMBOL        _ICE_DUMMY_
  D:0080H         PUBLIC        P0
  D:0090H         PUBLIC        P1
  C:0474H         PUBLIC        Power_All_Init
  D:00A0H         PUBLIC        P2
  D:00B0H         PUBLIC        P3
  D:00C0H         PUBLIC        P4
  D:00C8H         PUBLIC        P5
  B:00A8H.7       PUBLIC        EA
  D:00E8H         PUBLIC        P6
  D:00F8H         PUBLIC        P7
  D:00A8H         PUBLIC        IE
  D:00B8H         PUBLIC        IP
  D:00D8H         PUBLIC        CCON
  C:04B7H         PUBLIC        Timer0_Init
  C:04CCH         PUBLIC        Timer2_Init
  D:0098H         PUBLIC        SCON
  D:0089H         PUBLIC        TMOD
  D:0088H         PUBLIC        TCON
  D:00AFH         PUBLIC        IE2
  D:008EH         PUBLIC        AUXR
  B:00A8H.1       PUBLIC        ET0
BL51 BANKED LINKER/LOCATER V6.22.4.0                                                  05/27/2024  09:52:58  PAGE 10


  B:0088H.5       PUBLIC        TF0
  D:008CH         PUBLIC        TH0
  D:00D6H         PUBLIC        T2H
  D:008AH         PUBLIC        TL0
  D:00D7H         PUBLIC        T2L
  B:0088H.4       PUBLIC        TR0
  D:00D0H         PUBLIC        PSW
  -------         PROC          POWER_ALL_INIT
  C:0474H         LINE#         4
  C:0474H         LINE#         5
  C:0474H         LINE#         6
  C:047AH         LINE#         8
  C:0480H         LINE#         11
  C:0486H         LINE#         13
  C:048CH         LINE#         15
  -------         ENDPROC       POWER_ALL_INIT
  -------         PROC          TIMER0_INIT
  C:04B7H         LINE#         31
  C:04B7H         LINE#         32
  C:04B7H         LINE#         33
  C:04BAH         LINE#         34
  C:04BDH         LINE#         35
  C:04C0H         LINE#         36
  C:04C3H         LINE#         37
  C:04C5H         LINE#         38
  C:04C7H         LINE#         39
  C:04C9H         LINE#         40
  C:04CBH         LINE#         41
  -------         ENDPROC       TIMER0_INIT
  -------         PROC          TIMER2_INIT
  C:04CCH         LINE#         68
  C:04CCH         LINE#         69
  C:04CCH         LINE#         70
  C:04CFH         LINE#         71
  C:04D2H         LINE#         72
  C:04D5H         LINE#         73
  C:04D8H         LINE#         74
  C:04DBH         LINE#         75
  C:04DDH         LINE#         76
  -------         ENDPROC       TIMER2_INIT
  -------         ENDMOD        TIMER

Program Size: data=41.0 xdata=0 code=1238
LINK/LOCATE RUN COMPLETE.  0 WARNING(S),  0 ERROR(S)
