C51 COMPILER V9.60.7.0   TIMER                                                             04/16/2024 14:24:51 PAGE 1   


C51 COMPILER V9.60.7.0, COMPILATION OF MODULE TIMER
OBJECT MODULE PLACED IN .\Objects\Timer.obj
COMPILER INVOKED BY: E:\Keil_v5\C51\BIN\C51.EXE Timer.c OPTIMIZE(8,SPEED) BROWSE DEBUG OBJECTEXTEND PRINT(.\Listings\Tim
                    -er.lst) OBJECT(.\Objects\Timer.obj)

line level    source

   1          #include "Timer.h"
   2          
   3          //上电全部初始化
   4          void Power_All_Init(void)
   5          {
   6   1              P2=0XA0;P0=0X00;//关闭蜂鸣器、继电器  1010 0000
   7   1        
   8   1              P2=0X80;P0=0XFF;//关闭LED灯
   9   1                 //关573锁存器
  10   1              
  11   1              P2=0XC0;P0=0XFF;//选择所有数码管
  12   1       
  13   1              P2=0XE0;P0=0XFF;//关闭所有数码管
  14   1              
  15   1      }
  16          //void Timer0_Init(void)        //NE555测频率时候的定时器0初始化
  17          //{
  18          //      // 定时器0 16位自动重载 1T
  19          ////    AUXR |= 0x80;           //定时器时钟1T模式
  20          //      TMOD = 0x04;            //设置定时器模式
  21          //      TL0 = 0;                //设置定时初始值
  22          //      TH0 = 0;                //设置定时初始值
  23          //      TF0 = 0;                //清除TF0标志
  24          //      TR0 = 1;                //定时器0开始计数
  25          ////    ET0 = 1;
  26          ////    EA = 1; 
  27          //}
  28          
  29          
  30          //定时器0初始化
  31          void Timer0_Init(void)  //1毫秒@12.000MHz
  32          {
  33   1              AUXR |= 0x80;   //定时器时钟1T模式
  34   1              TMOD &= 0xF0;   //设置定时器模式
  35   1              TL0 = 0x20;             //设置定时初始值
  36   1              TH0 = 0xD1;             //设置定时初始值
  37   1              TF0 = 0;                //清除TF0标志
  38   1              TR0 = 1;                //定时器0开始计时
  39   1              ET0 = 1;                //允许T0溢出中断
  40   1              EA      = 1;            //总中断
  41   1      }
  42          
  43          /*
  44          //定时器0中断服务函数模板
  45          void Timer0_Rountine(void) interrupt 1
  46          {
  47                  static unsigned int T0Count0;
  48          
  49                  T0Count0++;
  50                  if(T0Count0 >= 200)
  51                  {
  52                          //执行操作
  53                          T0Count0 = 0;   //软件复位
  54                  }
C51 COMPILER V9.60.7.0   TIMER                                                             04/16/2024 14:24:51 PAGE 2   

  55          }       
  56          */
  57          
  58          //定时器1初始化
  59          
  60          /*
  61          // 定时器1 中断服务函数模板
  62          
  63          */
  64          
  65          
  66          
  67          //定时器2初始化
  68          void Timer2_Init(void)          //1毫秒@12.000MHz
  69          {
  70   1              AUXR |= 0x04;   //定时器时钟1T模式
  71   1              T2L = 0x20;             //设置定时初始值
  72   1              T2H = 0xD1;             //设置定时初始值
  73   1              AUXR |= 0x10;   //定时器2开始计时
  74   1              IE2  |= 0x04;   //打开定时器2的中断
  75   1              EA = 1;                 //打开总中断
  76   1      }
  77          
  78          /*
  79          // 定时器2 中断服务函数模板
  80          void Timer2_Routine() interrupt 12      // 1T 16位自动重载
  81          {
  82              static unsigned int T2Count0;       
  83                  T2Count0++;     
  84                  if(T2Count0 >= 1000)
  85                  {
  86                          //执行操作
  87                          T2Count0 = 0;
  88                  }
  89          }
  90          */
  91          
  92          
  93          //串口初始化
  94          
  95          /*
  96          //串口中断
  97          
  98          */


MODULE INFORMATION:   STATIC OVERLAYABLE
   CODE SIZE        =     64    ----
   CONSTANT SIZE    =   ----    ----
   XDATA SIZE       =   ----    ----
   PDATA SIZE       =   ----    ----
   DATA SIZE        =   ----    ----
   IDATA SIZE       =   ----    ----
   BIT SIZE         =   ----    ----
END OF MODULE INFORMATION.


C51 COMPILATION COMPLETE.  0 WARNING(S),  0 ERROR(S)
