BL51 BANKED LINKER/LOCATER V6.22.4.0                                                    04/15/2024  13:35:02  PAGE 1


BL51 BANKED LINKER/LOCATER V6.22.4.0, INVOKED BY:
E:\KEIL_V5\C51\BIN\BL51.EXE .\Objects\main.obj TO .\Objects\Project PRINT (.\Listings\Project.m51) RAMSIZE (256)


MEMORY MODEL: SMALL


INPUT MODULES INCLUDED:
  .\Objects\main.obj (MAIN)
  E:\KEIL_V5\C51\LIB\C51S.LIB (?C_STARTUP)
  E:\KEIL_V5\C51\LIB\C51S.LIB (?C_INIT)


LINK MAP OF MODULE:  .\Objects\Project (MAIN)


            TYPE    BASE      LENGTH    RELOCATION   SEGMENT NAME
            -----------------------------------------------------

            * * * * * * *   D A T A   M E M O R Y   * * * * * * *
            REG     0000H     0008H     ABSOLUTE     "REG BANK 0"
            DATA    0008H     0002H     UNIT         ?DT?MAIN
            IDATA   000AH     0001H     UNIT         ?STACK

            * * * * * * *   C O D E   M E M O R Y   * * * * * * *
            CODE    0000H     0003H     ABSOLUTE     
            CODE    0003H     008CH     UNIT         ?C_C51STARTUP
            CODE    008FH     002AH     UNIT         ?CO?MAIN
            CODE    00B9H     0028H     UNIT         ?PR?MAIN?MAIN
            CODE    00E1H     0015H     UNIT         ?PR?_DELAY?MAIN
            CODE    00F6H     0007H     UNIT         ?C_INITSEG



OVERLAY MAP OF MODULE:   .\Objects\Project (MAIN)


SEGMENT
  +--> CALLED SEGMENT
---------------------
?C_C51STARTUP
  +--> ?PR?MAIN?MAIN
  +--> ?C_INITSEG

?PR?MAIN?MAIN
  +--> ?CO?MAIN
  +--> ?PR?_DELAY?MAIN



SYMBOL TABLE OF MODULE:  .\Objects\Project (MAIN)

  VALUE           TYPE          NAME
  ----------------------------------

  -------         MODULE        MAIN
  C:0000H         SYMBOL        _ICE_DUMMY_
  D:0080H         PUBLIC        P0
BL51 BANKED LINKER/LOCATER V6.22.4.0                                                  04/15/2024  13:35:02  PAGE 2


  D:0090H         PUBLIC        P1
  D:00A0H         PUBLIC        P2
  D:00B0H         PUBLIC        P3
  C:00B9H         PUBLIC        main
  C:00A5H         PUBLIC        SMG_YIN
  C:008FH         PUBLIC        SMG_Yang
  D:0008H         PUBLIC        i
  D:0009H         PUBLIC        j
  C:00E1H         PUBLIC        _Delay
  -------         PROC          _DELAY
  D:0006H         SYMBOL        xms
  -------         DO            
  D:0005H         SYMBOL        i
  D:0004H         SYMBOL        j
  -------         ENDDO         
  C:00E1H         LINE#         11
  C:00E1H         LINE#         12
  C:00E1H         LINE#         14
  C:00EBH         LINE#         15
  C:00EBH         LINE#         16
  C:00EDH         LINE#         17
  C:00EFH         LINE#         19
  C:00EFH         LINE#         20
  C:00F1H         LINE#         21
  C:00F3H         LINE#         22
  C:00F5H         LINE#         23
  -------         ENDPROC       _DELAY
  -------         PROC          MAIN
  C:00B9H         LINE#         29
  C:00B9H         LINE#         30
  C:00B9H         LINE#         31
  C:00BCH         LINE#         32
  C:00BCH         LINE#         33
  C:00BCH         LINE#         35
  C:00C3H         LINE#         37
  C:00CAH         LINE#         39
  C:00D1H         LINE#         40
  C:00D8H         LINE#         41
  C:00DFH         LINE#         52
  -------         ENDPROC       MAIN
  -------         ENDMOD        MAIN

Program Size: data=11.0 xdata=0 code=253
LINK/LOCATE RUN COMPLETE.  0 WARNING(S),  0 ERROR(S)
