BL51 BANKED LINKER/LOCATER V6.22.4.0                                                    05/22/2024  08:59:33  PAGE 1


BL51 BANKED LINKER/LOCATER V6.22.4.0, INVOKED BY:
E:\KEIL_V5\C51\BIN\BL51.EXE .\Objects\main.obj TO .\Objects\LED PRINT (.\Listings\LED.m51) RAMSIZE (256)


MEMORY MODEL: SMALL


INPUT MODULES INCLUDED:
  .\Objects\main.obj (MAIN)
  E:\KEIL_V5\C51\LIB\C51S.LIB (?C_STARTUP)


LINK MAP OF MODULE:  .\Objects\LED (MAIN)


            TYPE    BASE      LENGTH    RELOCATION   SEGMENT NAME
            -----------------------------------------------------

            * * * * * * *   D A T A   M E M O R Y   * * * * * * *
            REG     0000H     0008H     ABSOLUTE     "REG BANK 0"
            DATA    0008H     0003H     UNIT         ?DT?MAIN
            IDATA   000BH     0001H     UNIT         ?STACK

            * * * * * * *   C O D E   M E M O R Y   * * * * * * *
            CODE    0000H     0003H     ABSOLUTE     
                    0003H     0008H                  *** GAP ***
            CODE    000BH     0003H     ABSOLUTE     
            CODE    000EH     0039H     UNIT         ?PR?TIMER0_ROUTINE?MAIN
            CODE    0047H     0017H     UNIT         ?PR?TIMER0_INIT?MAIN
            CODE    005EH     0010H     UNIT         ?PR?MAIN?MAIN
            CODE    006EH     000CH     UNIT         ?C_C51STARTUP



OVERLAY MAP OF MODULE:   .\Objects\LED (MAIN)


SEGMENT
  +--> CALLED SEGMENT
---------------------
?C_C51STARTUP
  +--> ?PR?MAIN?MAIN

?PR?MAIN?MAIN
  +--> ?PR?TIMER0_INIT?MAIN



SYMBOL TABLE OF MODULE:  .\Objects\LED (MAIN)

  VALUE           TYPE          NAME
  ----------------------------------

  -------         MODULE        MAIN
  C:0000H         SYMBOL        _ICE_DUMMY_
  C:000EH         PUBLIC        Timer0_Routine
  D:00A0H         PUBLIC        P2
  B:00A8H.7       PUBLIC        EA
BL51 BANKED LINKER/LOCATER V6.22.4.0                                                  05/22/2024  08:59:33  PAGE 2


  C:005EH         PUBLIC        main
  C:0047H         PUBLIC        Timer0_Init
  D:000AH         PUBLIC        led_flag
  D:0089H         PUBLIC        TMOD
  B:00A8H.1       PUBLIC        ET0
  B:0088H.5       PUBLIC        TF0
  D:008CH         PUBLIC        TH0
  D:008AH         PUBLIC        TL0
  B:00B8H.1       PUBLIC        PT0
  B:0088H.4       PUBLIC        TR0
  -------         PROC          TIMER0_INIT
  C:0047H         LINE#         5
  C:0047H         LINE#         6
  C:0047H         LINE#         7
  C:004AH         LINE#         8
  C:004DH         LINE#         9
  C:0050H         LINE#         10
  C:0053H         LINE#         11
  C:0055H         LINE#         12
  C:0057H         LINE#         13
  C:0059H         LINE#         14
  C:005BH         LINE#         15
  C:005DH         LINE#         16
  -------         ENDPROC       TIMER0_INIT
  -------         PROC          MAIN
  C:005EH         LINE#         19
  C:005EH         LINE#         20
  C:005EH         LINE#         21
  C:0061H         LINE#         22
  C:0061H         LINE#         23
  C:0061H         LINE#         24
  C:0065H         LINE#         25
  C:0069H         LINE#         27
  C:006CH         LINE#         28
  -------         ENDPROC       MAIN
  -------         PROC          TIMER0_ROUTINE
  -------         DO            
  D:0008H         SYMBOL        T0Count
  -------         ENDDO         
  C:000EH         LINE#         31
  C:0017H         LINE#         35
  C:001AH         LINE#         36
  C:001DH         LINE#         37
  C:0025H         LINE#         38
  C:002EH         LINE#         39
  C:002EH         LINE#         40
  C:0034H         LINE#         41
  C:0040H         LINE#         42
  C:0040H         LINE#         44
  -------         ENDPROC       TIMER0_ROUTINE
  -------         ENDMOD        MAIN

Program Size: data=12.0 xdata=0 code=114
LINK/LOCATE RUN COMPLETE.  0 WARNING(S),  0 ERROR(S)
