BL51 BANKED LINKER/LOCATER V6.22.4.0                                                    05/11/2024  17:04:42  PAGE 1


BL51 BANKED LINKER/LOCATER V6.22.4.0, INVOKED BY:
E:\KEIL_V5\C51\BIN\BL51.EXE .\Objects\main.obj, .\Objects\Delay.obj, .\Objects\SEG.obj, .\Objects\Key.obj TO .\Objects\K
>> ey PRINT (.\Listings\Key.m51) RAMSIZE (256) DISABLEWARNING (16)


MEMORY MODEL: SMALL


INPUT MODULES INCLUDED:
  .\Objects\main.obj (MAIN)
  .\Objects\Delay.obj (DELAY)
  .\Objects\SEG.obj (SEG)
  .\Objects\Key.obj (KEY)
  E:\KEIL_V5\C51\LIB\C51S.LIB (?C_STARTUP)
  E:\KEIL_V5\C51\LIB\C51S.LIB (?C_INIT)


LINK MAP OF MODULE:  .\Objects\Key (MAIN)


            TYPE    BASE      LENGTH    RELOCATION   SEGMENT NAME
            -----------------------------------------------------

            * * * * * * *   D A T A   M E M O R Y   * * * * * * *
            REG     0000H     0008H     ABSOLUTE     "REG BANK 0"
            DATA    0008H     0019H     UNIT         ?DT?MAIN
            DATA    0021H     0016H     UNIT         ?DT?SEG
            DATA    0037H     0001H     UNIT         _DATA_GROUP_
            IDATA   0038H     0001H     UNIT         ?STACK

            * * * * * * *   C O D E   M E M O R Y   * * * * * * *
            CODE    0000H     0003H     ABSOLUTE     
            CODE    0003H     008CH     UNIT         ?C_C51STARTUP
            CODE    008FH     0061H     UNIT         ?PR?KEY4_SCAN?KEY
            CODE    00F0H     0057H     UNIT         ?PR?MAIN?MAIN
            CODE    0147H     0031H     UNIT         ?C_INITSEG
            CODE    0178H     002CH     UNIT         ?PR?_SEG_DISPLAY?SEG
            CODE    01A4H     0019H     UNIT         ?PR?SYSTEM_INIT?DELAY
            CODE    01BDH     0015H     UNIT         ?PR?_DELAY?DELAY



OVERLAY MAP OF MODULE:   .\Objects\Key (MAIN)


SEGMENT                          DATA_GROUP 
  +--> CALLED SEGMENT          START    LENGTH
----------------------------------------------
?C_C51STARTUP                  -----    -----
  +--> ?PR?MAIN?MAIN
  +--> ?C_INITSEG

?PR?MAIN?MAIN                  -----    -----
  +--> ?PR?SYSTEM_INIT?DELAY
  +--> ?PR?KEY4_SCAN?KEY
  +--> ?PR?_SEG_DISPLAY?SEG
  +--> ?PR?_DELAY?DELAY

BL51 BANKED LINKER/LOCATER V6.22.4.0                                                  05/11/2024  17:04:42  PAGE 2


?PR?KEY4_SCAN?KEY              0037H    0001H
  +--> ?PR?_DELAY?DELAY

?PR?_SEG_DISPLAY?SEG           -----    -----
  +--> ?PR?_DELAY?DELAY



SYMBOL TABLE OF MODULE:  .\Objects\Key (MAIN)

  VALUE           TYPE          NAME
  ----------------------------------

  -------         MODULE        MAIN
  C:0000H         SYMBOL        _ICE_DUMMY_
  D:0080H         PUBLIC        P0
  D:0090H         PUBLIC        P1
  D:00A0H         PUBLIC        P2
  D:00B0H         PUBLIC        P3
  D:00C0H         PUBLIC        P4
  D:00C8H         PUBLIC        P5
  D:00E8H         PUBLIC        P6
  D:00F8H         PUBLIC        P7
  D:0008H         PUBLIC        number
  D:00A8H         PUBLIC        IE
  D:00B8H         PUBLIC        IP
  D:00D8H         PUBLIC        CCON
  C:00F0H         PUBLIC        main
  D:0098H         PUBLIC        SCON
  D:0088H         PUBLIC        TCON
  D:0009H         PUBLIC        Key_Num
  D:000AH         PUBLIC        i
  D:000BH         PUBLIC        xxx
  D:00D0H         PUBLIC        PSW
  -------         PROC          MAIN
  C:00F0H         LINE#         10
  C:00F0H         LINE#         11
  C:00F0H         LINE#         12
  C:00F3H         LINE#         13
  C:00F3H         LINE#         14
  C:00F8H         LINE#         15
  C:00FCH         LINE#         16
  C:00FEH         LINE#         17
  C:0104H         LINE#         18
  C:0112H         LINE#         19
  C:0120H         LINE#         20
  C:012EH         LINE#         21
  C:013CH         LINE#         22
  C:013EH         LINE#         23
  C:013EH         LINE#         24
  C:0145H         LINE#         25
  C:0145H         LINE#         26
  -------         ENDPROC       MAIN
  -------         ENDMOD        MAIN

  -------         MODULE        DELAY
  C:0000H         SYMBOL        _ICE_DUMMY_
BL51 BANKED LINKER/LOCATER V6.22.4.0                                                  05/11/2024  17:04:42  PAGE 3


  C:01A4H         PUBLIC        System_Init
  D:0080H         PUBLIC        P0
  D:0090H         PUBLIC        P1
  D:00A0H         PUBLIC        P2
  D:00B0H         PUBLIC        P3
  D:00C0H         PUBLIC        P4
  D:00C8H         PUBLIC        P5
  D:00E8H         PUBLIC        P6
  D:00F8H         PUBLIC        P7
  D:00A8H         PUBLIC        IE
  D:00B8H         PUBLIC        IP
  D:00D8H         PUBLIC        CCON
  D:0098H         PUBLIC        SCON
  D:0088H         PUBLIC        TCON
  C:01BDH         PUBLIC        _Delay
  D:00D0H         PUBLIC        PSW
  -------         PROC          _DELAY
  D:0006H         SYMBOL        xms
  -------         DO            
  D:0005H         SYMBOL        i
  D:0004H         SYMBOL        j
  -------         ENDDO         
  C:01BDH         LINE#         3
  C:01BDH         LINE#         4
  C:01BDH         LINE#         6
  C:01C7H         LINE#         7
  C:01C9H         LINE#         8
  C:01CBH         LINE#         9
  C:01CBH         LINE#         10
  C:01CDH         LINE#         11
  C:01CFH         LINE#         12
  C:01D1H         LINE#         13
  -------         ENDPROC       _DELAY
  -------         PROC          SYSTEM_INIT
  C:01A4H         LINE#         15
  C:01A4H         LINE#         16
  C:01AAH         LINE#         17
  C:01B0H         LINE#         18
  C:01B6H         LINE#         19
  C:01BCH         LINE#         20
  -------         ENDPROC       SYSTEM_INIT
  -------         ENDMOD        DELAY

  -------         MODULE        SEG
  C:0000H         SYMBOL        _ICE_DUMMY_
  D:0080H         PUBLIC        P0
  D:0090H         PUBLIC        P1
  D:00A0H         PUBLIC        P2
  D:00B0H         PUBLIC        P3
  D:00C0H         PUBLIC        P4
  D:00C8H         PUBLIC        P5
  D:00E8H         PUBLIC        P6
  D:00F8H         PUBLIC        P7
  D:00A8H         PUBLIC        IE
  D:00B8H         PUBLIC        IP
  C:0178H         PUBLIC        _SEG_Display
  D:00D8H         PUBLIC        CCON
BL51 BANKED LINKER/LOCATER V6.22.4.0                                                  05/11/2024  17:04:42  PAGE 4


  D:0098H         PUBLIC        SCON
  D:0088H         PUBLIC        TCON
  B:00A0H.5       PUBLIC        P25
  B:00A0H.6       PUBLIC        P26
  B:00A0H.7       PUBLIC        P27
  D:0021H         PUBLIC        SMG_Yang
  D:00D0H         PUBLIC        PSW
  -------         PROC          _SEG_DISPLAY
  D:0007H         SYMBOL        location
  D:0005H         SYMBOL        number
  C:0178H         LINE#         10
  C:0178H         LINE#         11
  C:0178H         LINE#         12
  C:017BH         LINE#         14
  C:0181H         LINE#         15
  C:0190H         LINE#         17
  C:0196H         LINE#         18
  C:019DH         LINE#         19
  -------         ENDPROC       _SEG_DISPLAY
  -------         ENDMOD        SEG

  -------         MODULE        KEY
  C:0000H         SYMBOL        _ICE_DUMMY_
  D:0080H         PUBLIC        P0
  D:0090H         PUBLIC        P1
  D:00A0H         PUBLIC        P2
  D:00B0H         PUBLIC        P3
  D:00C0H         PUBLIC        P4
  D:00C8H         PUBLIC        P5
  D:00E8H         PUBLIC        P6
  D:00F8H         PUBLIC        P7
  D:00A8H         PUBLIC        IE
  D:00B8H         PUBLIC        IP
  D:00D8H         PUBLIC        CCON
  B:00B0H.0       PUBLIC        P30
  D:0098H         PUBLIC        SCON
  B:00B0H.1       PUBLIC        P31
  D:0088H         PUBLIC        TCON
  B:00B0H.2       PUBLIC        P32
  B:00B0H.3       PUBLIC        P33
  C:008FH         PUBLIC        Key4_Scan
  D:00D0H         PUBLIC        PSW
  -------         PROC          KEY4_SCAN
  -------         DO            
  D:0037H         SYMBOL        Keynumber
  -------         ENDDO         
  C:008FH         LINE#         4
  C:008FH         LINE#         5
  C:008FH         LINE#         6
  C:0092H         LINE#         7
  C:00A8H         LINE#         8
  C:00BFH         LINE#         9
  C:00D6H         LINE#         10
  C:00EDH         LINE#         11
  C:00EFH         LINE#         12
  -------         ENDPROC       KEY4_SCAN
  -------         ENDMOD        KEY
BL51 BANKED LINKER/LOCATER V6.22.4.0                                                  05/11/2024  17:04:42  PAGE 5



Program Size: data=57.0 xdata=0 code=466
LINK/LOCATE RUN COMPLETE.  0 WARNING(S),  0 ERROR(S)
