BL51 BANKED LINKER/LOCATER V6.22.4.0                                                    05/09/2024  15:07:25  PAGE 1


BL51 BANKED LINKER/LOCATER V6.22.4.0, INVOKED BY:
E:\KEIL_V5\C51\BIN\BL51.EXE .\Objects\main.obj TO .\Objects\Project PRINT (.\Listings\Project.m51) RAMSIZE (256)


MEMORY MODEL: SMALL


INPUT MODULES INCLUDED:
  .\Objects\main.obj (MAIN)
  E:\KEIL_V5\C51\LIB\C51S.LIB (?C_STARTUP)
  E:\KEIL_V5\C51\LIB\C51S.LIB (?C_INIT)


LINK MAP OF MODULE:  .\Objects\Project (MAIN)


            TYPE    BASE      LENGTH    RELOCATION   SEGMENT NAME
            -----------------------------------------------------

            * * * * * * *   D A T A   M E M O R Y   * * * * * * *
            REG     0000H     0008H     ABSOLUTE     "REG BANK 0"
            DATA    0008H     0002H     UNIT         ?DT?MAIN
            IDATA   000AH     0001H     UNIT         ?STACK

            * * * * * * *   C O D E   M E M O R Y   * * * * * * *
            CODE    0000H     0003H     ABSOLUTE     
            CODE    0003H     0146H     UNIT         ?PR?MAIN?MAIN
            CODE    0149H     008CH     UNIT         ?C_C51STARTUP
            CODE    01D5H     001BH     UNIT         ?PR?_DELAY?MAIN
            CODE    01F0H     0007H     UNIT         ?C_INITSEG



OVERLAY MAP OF MODULE:   .\Objects\Project (MAIN)


SEGMENT
  +--> CALLED SEGMENT
---------------------
?C_C51STARTUP
  +--> ?PR?MAIN?MAIN
  +--> ?C_INITSEG

?PR?MAIN?MAIN
  +--> ?PR?_DELAY?MAIN



SYMBOL TABLE OF MODULE:  .\Objects\Project (MAIN)

  VALUE           TYPE          NAME
  ----------------------------------

  -------         MODULE        MAIN
  C:0000H         SYMBOL        _ICE_DUMMY_
  D:0080H         PUBLIC        P0
  D:0090H         PUBLIC        P1
  D:00A0H         PUBLIC        P2
BL51 BANKED LINKER/LOCATER V6.22.4.0                                                  05/09/2024  15:07:25  PAGE 2


  D:00B0H         PUBLIC        P3
  C:0003H         PUBLIC        main
  D:0008H         PUBLIC        i
  D:0009H         PUBLIC        j
  C:01DBH         PUBLIC        _Delay
  C:01D7H         SYMBOL        L?0054
  -------         PROC          L?0053
  -------         ENDPROC       L?0053
  C:01D7H         SYMBOL        L?0054
  -------         PROC          _DELAY
  D:0006H         SYMBOL        xms
  -------         DO            
  D:0005H         SYMBOL        i
  D:0004H         SYMBOL        j
  -------         ENDDO         
  C:01DBH         LINE#         14
  C:01DBH         LINE#         15
  C:01DBH         LINE#         17
  C:01E5H         LINE#         18
  C:01E5H         LINE#         19
  C:01E7H         LINE#         20
  C:01E9H         LINE#         22
  C:01E9H         LINE#         23
  C:01EBH         LINE#         24
  C:01EDH         LINE#         25
  C:01EFH         LINE#         26
  -------         ENDPROC       _DELAY
  -------         PROC          MAIN
  C:0003H         LINE#         37
  C:0003H         LINE#         38
  C:0003H         LINE#         40
  C:000CH         LINE#         42
  C:000CH         LINE#         43
  C:000CH         LINE#         44
  C:0016H         LINE#         45
  C:001FH         LINE#         46
  C:0029H         LINE#         47
  C:0032H         LINE#         48
  C:003CH         LINE#         49
  C:0045H         LINE#         50
  C:004FH         LINE#         51
  C:0058H         LINE#         54
  C:005BH         LINE#         55
  C:0074H         LINE#         56
  C:0077H         LINE#         57
  C:0092H         LINE#         58
  C:0095H         LINE#         59
  C:00B0H         LINE#         60
  C:00B3H         LINE#         61
  C:00CEH         LINE#         64
  C:00D1H         LINE#         65
  C:00ECH         LINE#         66
  C:00EFH         LINE#         67
  C:010AH         LINE#         68
  C:010DH         LINE#         69
  C:0128H         LINE#         70
  C:0135H         LINE#         71
BL51 BANKED LINKER/LOCATER V6.22.4.0                                                  05/09/2024  15:07:25  PAGE 3


  -------         ENDPROC       MAIN
  -------         ENDMOD        MAIN

Program Size: data=11.0 xdata=0 code=503
LINK/LOCATE RUN COMPLETE.  0 WARNING(S),  0 ERROR(S)
