BL51 BANKED LINKER/LOCATER V6.22.4.0                                                    04/14/2024  11:26:17  PAGE 1


BL51 BANKED LINKER/LOCATER V6.22.4.0, INVOKED BY:
E:\KEIL_V5\C51\BIN\BL51.EXE .\Objects\main.obj TO .\Objects\Project PRINT (.\Listings\Project.m51) RAMSIZE (256)


MEMORY MODEL: SMALL


INPUT MODULES INCLUDED:
  .\Objects\main.obj (MAIN)
  E:\KEIL_V5\C51\LIB\C51S.LIB (?C_STARTUP)
  E:\KEIL_V5\C51\LIB\C51S.LIB (?C_INIT)


LINK MAP OF MODULE:  .\Objects\Project (MAIN)


            TYPE    BASE      LENGTH    RELOCATION   SEGMENT NAME
            -----------------------------------------------------

            * * * * * * *   D A T A   M E M O R Y   * * * * * * *
            REG     0000H     0008H     ABSOLUTE     "REG BANK 0"
            DATA    0008H     0002H     UNIT         ?DT?MAIN
            IDATA   000AH     0001H     UNIT         ?STACK

            * * * * * * *   C O D E   M E M O R Y   * * * * * * *
            CODE    0000H     0003H     ABSOLUTE     
            CODE    0003H     0140H     UNIT         ?PR?MAIN?MAIN
            CODE    0143H     008CH     UNIT         ?C_C51STARTUP
            CODE    01CFH     001BH     UNIT         ?PR?_DELAY?MAIN
            CODE    01EAH     0019H     UNIT         ?PR?SYSTEM_INIT?MAIN
            CODE    0203H     0007H     UNIT         ?C_INITSEG



OVERLAY MAP OF MODULE:   .\Objects\Project (MAIN)


SEGMENT
  +--> CALLED SEGMENT
---------------------
?C_C51STARTUP
  +--> ?PR?MAIN?MAIN
  +--> ?C_INITSEG

?PR?MAIN?MAIN
  +--> ?PR?SYSTEM_INIT?MAIN
  +--> ?PR?_DELAY?MAIN



SYMBOL TABLE OF MODULE:  .\Objects\Project (MAIN)

  VALUE           TYPE          NAME
  ----------------------------------

  -------         MODULE        MAIN
  C:0000H         SYMBOL        _ICE_DUMMY_
  C:01EAH         PUBLIC        System_Init
BL51 BANKED LINKER/LOCATER V6.22.4.0                                                  04/14/2024  11:26:17  PAGE 2


  D:0080H         PUBLIC        P0
  D:0090H         PUBLIC        P1
  D:00A0H         PUBLIC        P2
  D:00B0H         PUBLIC        P3
  C:0003H         PUBLIC        main
  D:0008H         PUBLIC        i
  D:0009H         PUBLIC        j
  C:01D5H         PUBLIC        _Delay
  C:01D1H         SYMBOL        L?0055
  -------         PROC          L?0054
  -------         ENDPROC       L?0054
  C:01D1H         SYMBOL        L?0055
  -------         PROC          _DELAY
  D:0006H         SYMBOL        xms
  -------         DO            
  D:0005H         SYMBOL        i
  D:0004H         SYMBOL        j
  -------         ENDDO         
  C:01D5H         LINE#         4
  C:01D5H         LINE#         5
  C:01D5H         LINE#         7
  C:01DFH         LINE#         8
  C:01DFH         LINE#         9
  C:01E1H         LINE#         10
  C:01E3H         LINE#         12
  C:01E3H         LINE#         13
  C:01E5H         LINE#         14
  C:01E7H         LINE#         15
  C:01E9H         LINE#         16
  -------         ENDPROC       _DELAY
  -------         PROC          SYSTEM_INIT
  C:01EAH         LINE#         18
  C:01EAH         LINE#         19
  C:01EAH         LINE#         20
  C:01F0H         LINE#         21
  C:01F6H         LINE#         22
  C:01FCH         LINE#         23
  C:0202H         LINE#         24
  -------         ENDPROC       SYSTEM_INIT
  -------         PROC          MAIN
  C:0003H         LINE#         29
  C:0003H         LINE#         30
  C:0003H         LINE#         31
  C:0006H         LINE#         33
  C:0006H         LINE#         34
  C:0006H         LINE#         35
  C:0010H         LINE#         36
  C:0019H         LINE#         37
  C:0023H         LINE#         38
  C:002CH         LINE#         39
  C:0036H         LINE#         40
  C:003FH         LINE#         41
  C:0049H         LINE#         42
  C:0052H         LINE#         45
  C:0055H         LINE#         46
  C:0062H         LINE#         47
  C:0065H         LINE#         48
BL51 BANKED LINKER/LOCATER V6.22.4.0                                                  04/14/2024  11:26:17  PAGE 3


  C:006EH         LINE#         49
  C:0071H         LINE#         50
  C:0080H         LINE#         51
  C:0083H         LINE#         52
  C:008CH         LINE#         53
  C:008FH         LINE#         54
  C:009EH         LINE#         55
  C:00A1H         LINE#         56
  C:00AAH         LINE#         57
  C:00ADH         LINE#         58
  C:00BCH         LINE#         59
  C:00BFH         LINE#         60
  C:00C8H         LINE#         63
  C:00CBH         LINE#         64
  C:00DAH         LINE#         65
  C:00DDH         LINE#         66
  C:00E6H         LINE#         67
  C:00E9H         LINE#         68
  C:00F8H         LINE#         69
  C:00FBH         LINE#         70
  C:0104H         LINE#         71
  C:0107H         LINE#         72
  C:0116H         LINE#         73
  C:0119H         LINE#         74
  C:0122H         LINE#         75
  C:012FH         LINE#         76
  C:013CH         LINE#         77
  C:013FH         LINE#         78
  -------         ENDPROC       MAIN
  -------         ENDMOD        MAIN

Program Size: data=11.0 xdata=0 code=522
LINK/LOCATE RUN COMPLETE.  0 WARNING(S),  0 ERROR(S)
