BL51 BANKED LINKER/LOCATER V6.22.4.0                                                    05/11/2024  16:07:11  PAGE 1


BL51 BANKED LINKER/LOCATER V6.22.4.0, INVOKED BY:
E:\KEIL_V5\C51\BIN\BL51.EXE .\Objects\main.obj TO .\Objects\Project PRINT (.\Listings\Project.m51) RAMSIZE (256)


MEMORY MODEL: SMALL


INPUT MODULES INCLUDED:
  .\Objects\main.obj (MAIN)
  E:\KEIL_V5\C51\LIB\C51S.LIB (?C_STARTUP)
  E:\KEIL_V5\C51\LIB\C51S.LIB (?C_INIT)


LINK MAP OF MODULE:  .\Objects\Project (MAIN)


            TYPE    BASE      LENGTH    RELOCATION   SEGMENT NAME
            -----------------------------------------------------

            * * * * * * *   D A T A   M E M O R Y   * * * * * * *
            REG     0000H     0008H     ABSOLUTE     "REG BANK 0"
            DATA    0008H     0002H     UNIT         ?DT?MAIN
            IDATA   000AH     0001H     UNIT         ?STACK

            * * * * * * *   C O D E   M E M O R Y   * * * * * * *
            CODE    0000H     0003H     ABSOLUTE     
            CODE    0003H     01C2H     UNIT         ?PR?MAIN?MAIN
            CODE    01C5H     008CH     UNIT         ?C_C51STARTUP
            CODE    0251H     001BH     UNIT         ?PR?_DELAY?MAIN
            CODE    026CH     0007H     UNIT         ?C_INITSEG



OVERLAY MAP OF MODULE:   .\Objects\Project (MAIN)


SEGMENT
  +--> CALLED SEGMENT
---------------------
?C_C51STARTUP
  +--> ?PR?MAIN?MAIN
  +--> ?C_INITSEG

?PR?MAIN?MAIN
  +--> ?PR?_DELAY?MAIN



SYMBOL TABLE OF MODULE:  .\Objects\Project (MAIN)

  VALUE           TYPE          NAME
  ----------------------------------

  -------         MODULE        MAIN
  C:0000H         SYMBOL        _ICE_DUMMY_
  D:0080H         PUBLIC        P0
  D:0090H         PUBLIC        P1
  D:00A0H         PUBLIC        P2
BL51 BANKED LINKER/LOCATER V6.22.4.0                                                  05/11/2024  16:07:11  PAGE 2


  D:00B0H         PUBLIC        P3
  C:0003H         PUBLIC        main
  D:0008H         PUBLIC        i
  D:0009H         PUBLIC        j
  C:0257H         PUBLIC        _Delay
  C:0253H         SYMBOL        L?0071
  -------         PROC          L?0070
  -------         ENDPROC       L?0070
  C:0253H         SYMBOL        L?0071
  -------         PROC          _DELAY
  D:0006H         SYMBOL        xms
  -------         DO            
  D:0005H         SYMBOL        i
  D:0004H         SYMBOL        j
  -------         ENDDO         
  C:0257H         LINE#         3
  C:0257H         LINE#         4
  C:0257H         LINE#         6
  C:0261H         LINE#         7
  C:0261H         LINE#         8
  C:0263H         LINE#         9
  C:0265H         LINE#         11
  C:0265H         LINE#         12
  C:0267H         LINE#         13
  C:0269H         LINE#         14
  C:026BH         LINE#         15
  -------         ENDPROC       _DELAY
  -------         PROC          MAIN
  C:0003H         LINE#         17
  C:0003H         LINE#         18
  C:0003H         LINE#         19
  C:000CH         LINE#         20
  C:000CH         LINE#         21
  C:000CH         LINE#         22
  C:000FH         LINE#         23
  C:0012H         LINE#         24
  C:0022H         LINE#         25
  C:0024H         LINE#         26
  C:0034H         LINE#         27
  C:0036H         LINE#         28
  C:003DH         LINE#         29
  C:0046H         LINE#         30
  C:0049H         LINE#         31
  C:0059H         LINE#         32
  C:005BH         LINE#         33
  C:006BH         LINE#         34
  C:006DH         LINE#         35
  C:0074H         LINE#         36
  C:007DH         LINE#         37
  C:0086H         LINE#         39
  C:0089H         LINE#         40
  C:00A2H         LINE#         41
  C:00A5H         LINE#         42
  C:00C0H         LINE#         43
  C:00C3H         LINE#         44
  C:00DEH         LINE#         45
  C:00E1H         LINE#         46
BL51 BANKED LINKER/LOCATER V6.22.4.0                                                  05/11/2024  16:07:11  PAGE 3


  C:00FCH         LINE#         48
  C:00FFH         LINE#         49
  C:011AH         LINE#         50
  C:011DH         LINE#         51
  C:0138H         LINE#         52
  C:013BH         LINE#         53
  C:0156H         LINE#         54
  C:0159H         LINE#         55
  C:0172H         LINE#         56
  C:017CH         LINE#         57
  C:0186H         LINE#         58
  C:0190H         LINE#         59
  C:019AH         LINE#         60
  C:01A4H         LINE#         61
  C:01AEH         LINE#         62
  C:01B8H         LINE#         63
  C:01C2H         LINE#         64
  -------         ENDPROC       MAIN
  -------         ENDMOD        MAIN

Program Size: data=11.0 xdata=0 code=627
LINK/LOCATE RUN COMPLETE.  0 WARNING(S),  0 ERROR(S)
