BL51 BANKED LINKER/LOCATER V6.22.4.0                                                    04/23/2024  14:35:15  PAGE 1


BL51 BANKED LINKER/LOCATER V6.22.4.0, INVOKED BY:
E:\KEIL_V5\C51\BIN\BL51.EXE .\Objects\main.obj TO .\Objects\Project PRINT (.\Listings\Project.m51) RAMSIZE (256)


MEMORY MODEL: SMALL


INPUT MODULES INCLUDED:
  .\Objects\main.obj (MAIN)
  E:\KEIL_V5\C51\LIB\C51S.LIB (?C_STARTUP)
  E:\KEIL_V5\C51\LIB\C51S.LIB (?C_INIT)


LINK MAP OF MODULE:  .\Objects\Project (MAIN)


            TYPE    BASE      LENGTH    RELOCATION   SEGMENT NAME
            -----------------------------------------------------

            * * * * * * *   D A T A   M E M O R Y   * * * * * * *
            REG     0000H     0008H     ABSOLUTE     "REG BANK 0"
            DATA    0008H     0002H     UNIT         ?DT?MAIN
            IDATA   000AH     0001H     UNIT         ?STACK

            * * * * * * *   C O D E   M E M O R Y   * * * * * * *
            CODE    0000H     0003H     ABSOLUTE     
            CODE    0003H     008CH     UNIT         ?C_C51STARTUP
            CODE    008FH     001FH     UNIT         ?PR?MAIN?MAIN
            CODE    00AEH     0015H     UNIT         ?PR?_DELAY?MAIN
            CODE    00C3H     0007H     UNIT         ?C_INITSEG
            CODE    00CAH     0001H     UNIT         ?PR?SYSTEM_INIT?MAIN



OVERLAY MAP OF MODULE:   .\Objects\Project (MAIN)


SEGMENT
  +--> CALLED SEGMENT
---------------------
?C_C51STARTUP
  +--> ?PR?MAIN?MAIN
  +--> ?C_INITSEG

?PR?MAIN?MAIN
  +--> ?PR?SYSTEM_INIT?MAIN
  +--> ?PR?_DELAY?MAIN



SYMBOL TABLE OF MODULE:  .\Objects\Project (MAIN)

  VALUE           TYPE          NAME
  ----------------------------------

  -------         MODULE        MAIN
  C:0000H         SYMBOL        _ICE_DUMMY_
  C:00CAH         PUBLIC        System_Init
BL51 BANKED LINKER/LOCATER V6.22.4.0                                                  04/23/2024  14:35:15  PAGE 2


  D:0080H         PUBLIC        P0
  D:00A0H         PUBLIC        P2
  C:008FH         PUBLIC        main
  D:0008H         PUBLIC        i
  D:0009H         PUBLIC        j
  C:00AEH         PUBLIC        _Delay
  -------         PROC          _DELAY
  D:0006H         SYMBOL        xms
  -------         DO            
  D:0005H         SYMBOL        i
  D:0004H         SYMBOL        j
  -------         ENDDO         
  C:00AEH         LINE#         3
  C:00AEH         LINE#         4
  C:00AEH         LINE#         6
  C:00B8H         LINE#         7
  C:00B8H         LINE#         8
  C:00BAH         LINE#         9
  C:00BCH         LINE#         11
  C:00BCH         LINE#         12
  C:00BEH         LINE#         13
  C:00C0H         LINE#         14
  C:00C2H         LINE#         15
  -------         ENDPROC       _DELAY
  -------         PROC          SYSTEM_INIT
  C:00CAH         LINE#         17
  C:00CAH         LINE#         18
  C:00CAH         LINE#         23
  -------         ENDPROC       SYSTEM_INIT
  -------         PROC          MAIN
  C:008FH         LINE#         25
  C:008FH         LINE#         26
  C:008FH         LINE#         27
  C:0092H         LINE#         29
  C:0092H         LINE#         30
  C:0092H         LINE#         31
  C:0095H         LINE#         32
  C:0098H         LINE#         33
  C:009FH         LINE#         35
  C:00A2H         LINE#         36
  C:00A5H         LINE#         37
  C:00ACH         LINE#         38
  -------         ENDPROC       MAIN
  -------         ENDMOD        MAIN

Program Size: data=11.0 xdata=0 code=203
LINK/LOCATE RUN COMPLETE.  0 WARNING(S),  0 ERROR(S)
