BL51 BANKED LINKER/LOCATER V6.22.4.0                                                    05/14/2024  14:34:27  PAGE 1


BL51 BANKED LINKER/LOCATER V6.22.4.0, INVOKED BY:
E:\KEIL_V5\C51\BIN\BL51.EXE .\Objects\main.obj, .\Objects\Delay.obj, .\Objects\SEG.obj, .\Objects\Key.obj TO .\Objects\K
>> ey PRINT (.\Listings\Key.m51) RAMSIZE (256) DISABLEWARNING (16)


MEMORY MODEL: SMALL


INPUT MODULES INCLUDED:
  .\Objects\main.obj (MAIN)
  .\Objects\Delay.obj (DELAY)
  .\Objects\SEG.obj (SEG)
  .\Objects\Key.obj (KEY)
  E:\KEIL_V5\C51\LIB\C51S.LIB (?C_STARTUP)
  E:\KEIL_V5\C51\LIB\C51S.LIB (?C_INIT)


LINK MAP OF MODULE:  .\Objects\Key (MAIN)


            TYPE    BASE      LENGTH    RELOCATION   SEGMENT NAME
            -----------------------------------------------------

            * * * * * * *   D A T A   M E M O R Y   * * * * * * *
            REG     0000H     0008H     ABSOLUTE     "REG BANK 0"
            DATA    0008H     0016H     UNIT         ?DT?SEG
            DATA    001EH     0003H     UNIT         ?DT?MAIN
            DATA    0021H     0002H     UNIT         ?DT?KEY16_SCAN?KEY
            DATA    0023H     0002H     UNIT         _DATA_GROUP_
            DATA    0025H     0001H     UNIT         ?DT?KEY4_SCAN?KEY
            IDATA   0026H     0001H     UNIT         ?STACK

            * * * * * * *   C O D E   M E M O R Y   * * * * * * *
            CODE    0000H     0003H     ABSOLUTE     
            CODE    0003H     0167H     UNIT         ?PR?KEY16_SCAN?KEY
            CODE    016AH     015EH     UNIT         ?PR?KEY16_SCAN_PROTEUS?KEY
            CODE    02C8H     008CH     UNIT         ?C_C51STARTUP
            CODE    0354H     0061H     UNIT         ?PR?KEY4_SCAN?KEY
            CODE    03B5H     002CH     UNIT         ?PR?_SEG_DISPLAY?SEG
            CODE    03E1H     0019H     UNIT         ?PR?MAIN?MAIN
            CODE    03FAH     0019H     UNIT         ?PR?SYSTEM_INIT?DELAY
            CODE    0413H     0019H     UNIT         ?C_INITSEG
            CODE    042CH     0015H     UNIT         ?PR?_DELAY?DELAY
            CODE    0441H     0015H     UNIT         ?PR?_DELAY_MS?DELAY



OVERLAY MAP OF MODULE:   .\Objects\Key (MAIN)


SEGMENT                              DATA_GROUP 
  +--> CALLED SEGMENT              START    LENGTH
--------------------------------------------------
?C_C51STARTUP                      -----    -----
  +--> ?PR?MAIN?MAIN
  +--> ?C_INITSEG

?PR?MAIN?MAIN                      -----    -----
BL51 BANKED LINKER/LOCATER V6.22.4.0                                                  05/14/2024  14:34:27  PAGE 2


  +--> ?PR?SYSTEM_INIT?DELAY
  +--> ?PR?KEY16_SCAN_PROTEUS?KEY
  +--> ?PR?_SEG_DISPLAY?SEG

?PR?KEY16_SCAN_PROTEUS?KEY         0023H    0002H
  +--> ?PR?_DELAY_MS?DELAY

?PR?_SEG_DISPLAY?SEG               -----    -----
  +--> ?PR?_DELAY?DELAY



SYMBOL TABLE OF MODULE:  .\Objects\Key (MAIN)

  VALUE           TYPE          NAME
  ----------------------------------

  -------         MODULE        MAIN
  C:0000H         SYMBOL        _ICE_DUMMY_
  D:0080H         PUBLIC        P0
  D:0090H         PUBLIC        P1
  D:00A0H         PUBLIC        P2
  D:00B0H         PUBLIC        P3
  D:00C0H         PUBLIC        P4
  D:00C8H         PUBLIC        P5
  D:00E8H         PUBLIC        P6
  D:00F8H         PUBLIC        P7
  D:001EH         PUBLIC        number
  D:00A8H         PUBLIC        IE
  D:00B8H         PUBLIC        IP
  D:00D8H         PUBLIC        CCON
  C:03E1H         PUBLIC        main
  D:0098H         PUBLIC        SCON
  D:0088H         PUBLIC        TCON
  D:001FH         PUBLIC        Key_Num
  D:0020H         PUBLIC        i
  D:00D0H         PUBLIC        PSW
  -------         PROC          MAIN
  C:03E1H         LINE#         10
  C:03E1H         LINE#         11
  C:03E1H         LINE#         12
  C:03E4H         LINE#         13
  C:03E4H         LINE#         14
  C:03E4H         LINE#         15
  C:03E9H         LINE#         16
  C:03EDH         LINE#         17
  C:03F1H         LINE#         18
  C:03F8H         LINE#         19
  -------         ENDPROC       MAIN
  -------         ENDMOD        MAIN

  -------         MODULE        DELAY
  C:0000H         SYMBOL        _ICE_DUMMY_
  C:03FAH         PUBLIC        System_Init
  D:0080H         PUBLIC        P0
  D:0090H         PUBLIC        P1
  D:00A0H         PUBLIC        P2
BL51 BANKED LINKER/LOCATER V6.22.4.0                                                  05/14/2024  14:34:27  PAGE 3


  D:00B0H         PUBLIC        P3
  D:00C0H         PUBLIC        P4
  D:00C8H         PUBLIC        P5
  D:00E8H         PUBLIC        P6
  D:00F8H         PUBLIC        P7
  D:00A8H         PUBLIC        IE
  D:00B8H         PUBLIC        IP
  D:00D8H         PUBLIC        CCON
  C:0441H         PUBLIC        _Delay_ms
  D:0098H         PUBLIC        SCON
  D:0088H         PUBLIC        TCON
  C:042CH         PUBLIC        _Delay
  D:00D0H         PUBLIC        PSW
  -------         PROC          _DELAY
  D:0006H         SYMBOL        xms
  -------         DO            
  D:0005H         SYMBOL        i
  D:0004H         SYMBOL        j
  -------         ENDDO         
  C:042CH         LINE#         4
  C:042CH         LINE#         5
  C:042CH         LINE#         7
  C:0436H         LINE#         8
  C:0436H         LINE#         9
  C:0438H         LINE#         10
  C:043AH         LINE#         12
  C:043AH         LINE#         13
  C:043CH         LINE#         14
  C:043EH         LINE#         15
  C:0440H         LINE#         16
  -------         ENDPROC       _DELAY
  -------         PROC          _DELAY_MS
  D:0006H         SYMBOL        xms
  -------         DO            
  D:0005H         SYMBOL        i
  D:0004H         SYMBOL        j
  -------         ENDDO         
  C:0441H         LINE#         18
  C:0441H         LINE#         19
  C:0441H         LINE#         21
  C:044BH         LINE#         22
  C:044BH         LINE#         23
  C:044DH         LINE#         24
  C:044FH         LINE#         26
  C:044FH         LINE#         27
  C:0451H         LINE#         28
  C:0453H         LINE#         29
  C:0455H         LINE#         30
  -------         ENDPROC       _DELAY_MS
  -------         PROC          SYSTEM_INIT
  C:03FAH         LINE#         34
  C:03FAH         LINE#         35
  C:03FAH         LINE#         36
  C:0400H         LINE#         37
  C:0406H         LINE#         38
  C:040CH         LINE#         39
  C:0412H         LINE#         40
BL51 BANKED LINKER/LOCATER V6.22.4.0                                                  05/14/2024  14:34:27  PAGE 4


  -------         ENDPROC       SYSTEM_INIT
  -------         ENDMOD        DELAY

  -------         MODULE        SEG
  C:0000H         SYMBOL        _ICE_DUMMY_
  D:0080H         PUBLIC        P0
  D:0090H         PUBLIC        P1
  D:00A0H         PUBLIC        P2
  D:00B0H         PUBLIC        P3
  D:00C0H         PUBLIC        P4
  D:00C8H         PUBLIC        P5
  D:00E8H         PUBLIC        P6
  D:00F8H         PUBLIC        P7
  D:00A8H         PUBLIC        IE
  D:00B8H         PUBLIC        IP
  C:03B5H         PUBLIC        _SEG_Display
  D:00D8H         PUBLIC        CCON
  D:0098H         PUBLIC        SCON
  D:0088H         PUBLIC        TCON
  B:00A0H.5       PUBLIC        P25
  B:00A0H.6       PUBLIC        P26
  B:00A0H.7       PUBLIC        P27
  D:0008H         PUBLIC        SMG_Yang
  D:00D0H         PUBLIC        PSW
  -------         PROC          _SEG_DISPLAY
  D:0007H         SYMBOL        location
  D:0005H         SYMBOL        number
  C:03B5H         LINE#         11
  C:03B5H         LINE#         12
  C:03B5H         LINE#         13
  C:03B8H         LINE#         15
  C:03BEH         LINE#         16
  C:03CDH         LINE#         18
  C:03D3H         LINE#         19
  C:03DAH         LINE#         20
  -------         ENDPROC       _SEG_DISPLAY
  -------         ENDMOD        SEG

  -------         MODULE        KEY
  C:0000H         SYMBOL        _ICE_DUMMY_
  D:0080H         PUBLIC        P0
  D:0090H         PUBLIC        P1
  D:00A0H         PUBLIC        P2
  D:00B0H         PUBLIC        P3
  D:00C0H         PUBLIC        P4
  D:00C8H         PUBLIC        P5
  D:00E8H         PUBLIC        P6
  D:00F8H         PUBLIC        P7
  D:00A8H         PUBLIC        IE
  D:00B8H         PUBLIC        IP
  D:00D8H         PUBLIC        CCON
  B:00B0H.0       PUBLIC        P30
  D:0098H         PUBLIC        SCON
  B:00B0H.1       PUBLIC        P31
  D:0088H         PUBLIC        TCON
  B:00B0H.2       PUBLIC        P32
  B:00B0H.3       PUBLIC        P33
BL51 BANKED LINKER/LOCATER V6.22.4.0                                                  05/14/2024  14:34:27  PAGE 5


  C:0354H         PUBLIC        Key4_Scan
  C:016AH         PUBLIC        Key16_Scan_Proteus
  C:0003H         PUBLIC        Key16_Scan
  D:00D0H         PUBLIC        PSW
  -------         PROC          KEY4_SCAN
  -------         DO            
  D:0025H         SYMBOL        Keynumber
  -------         ENDDO         
  C:0354H         LINE#         4
  C:0354H         LINE#         5
  C:0354H         LINE#         6
  C:0357H         LINE#         7
  C:036DH         LINE#         8
  C:0384H         LINE#         9
  C:039BH         LINE#         10
  C:03B2H         LINE#         11
  C:03B4H         LINE#         12
  -------         ENDPROC       KEY4_SCAN
  -------         PROC          KEY16_SCAN
  -------         DO            
  D:0021H         SYMBOL        KeyNumber
  D:0022H         SYMBOL        temp
  -------         ENDDO         
  C:0003H         LINE#         14
  C:0003H         LINE#         15
  C:0003H         LINE#         16
  C:0006H         LINE#         21
  C:0009H         LINE#         22
  C:000CH         LINE#         23
  C:000FH         LINE#         24
  C:0012H         LINE#         25
  C:0018H         LINE#         26
  C:0018H         LINE#         27
  C:001FH         LINE#         28
  C:0022H         LINE#         29
  C:0025H         LINE#         30
  C:002BH         LINE#         31
  C:002BH         LINE#         32
  C:002EH         LINE#         33
  C:003FH         LINE#         34
  C:003FH         LINE#         35
  C:0044H         LINE#         36
  C:0049H         LINE#         37
  C:004EH         LINE#         38
  C:0051H         LINE#         39
  C:0051H         LINE#         40
  C:0057H         LINE#         41
  C:0057H         LINE#         42
  C:005AH         LINE#         43
  C:005DH         LINE#         44
  C:005FH         LINE#         45
  C:005FH         LINE#         46
  C:005FH         LINE#         49
  C:0062H         LINE#         50
  C:0065H         LINE#         51
  C:0068H         LINE#         52
  C:006BH         LINE#         53
BL51 BANKED LINKER/LOCATER V6.22.4.0                                                  05/14/2024  14:34:27  PAGE 6


  C:0071H         LINE#         54
  C:0071H         LINE#         55
  C:0078H         LINE#         56
  C:007BH         LINE#         57
  C:007EH         LINE#         58
  C:0084H         LINE#         59
  C:0084H         LINE#         60
  C:0087H         LINE#         61
  C:0098H         LINE#         62
  C:0098H         LINE#         63
  C:009DH         LINE#         64
  C:00A2H         LINE#         65
  C:00A7H         LINE#         66
  C:00AAH         LINE#         67
  C:00AAH         LINE#         68
  C:00B0H         LINE#         69
  C:00B0H         LINE#         70
  C:00B3H         LINE#         71
  C:00B6H         LINE#         72
  C:00B8H         LINE#         73
  C:00B8H         LINE#         74
  C:00B8H         LINE#         77
  C:00BBH         LINE#         78
  C:00BEH         LINE#         79
  C:00C1H         LINE#         80
  C:00C4H         LINE#         81
  C:00CAH         LINE#         82
  C:00CAH         LINE#         83
  C:00D1H         LINE#         84
  C:00D4H         LINE#         85
  C:00D7H         LINE#         86
  C:00DDH         LINE#         87
  C:00DDH         LINE#         88
  C:00E0H         LINE#         89
  C:00F1H         LINE#         90
  C:00F1H         LINE#         91
  C:00F6H         LINE#         92
  C:00FBH         LINE#         93
  C:0100H         LINE#         94
  C:0103H         LINE#         95
  C:0103H         LINE#         96
  C:0109H         LINE#         97
  C:0109H         LINE#         98
  C:010CH         LINE#         99
  C:010FH         LINE#         100
  C:0111H         LINE#         101
  C:0111H         LINE#         102
  C:0111H         LINE#         105
  C:0114H         LINE#         106
  C:0117H         LINE#         107
  C:011AH         LINE#         108
  C:0120H         LINE#         109
  C:0120H         LINE#         110
  C:0127H         LINE#         111
  C:012AH         LINE#         112
  C:012DH         LINE#         113
  C:0133H         LINE#         114
BL51 BANKED LINKER/LOCATER V6.22.4.0                                                  05/14/2024  14:34:27  PAGE 7


  C:0133H         LINE#         115
  C:0136H         LINE#         116
  C:0147H         LINE#         117
  C:0147H         LINE#         118
  C:014CH         LINE#         119
  C:0151H         LINE#         120
  C:0156H         LINE#         121
  C:0159H         LINE#         122
  C:0159H         LINE#         123
  C:015FH         LINE#         124
  C:015FH         LINE#         125
  C:0162H         LINE#         126
  C:0165H         LINE#         127
  C:0167H         LINE#         128
  C:0167H         LINE#         129
  C:0167H         LINE#         131
  C:0169H         LINE#         132
  -------         ENDPROC       KEY16_SCAN
  -------         PROC          KEY16_SCAN_PROTEUS
  -------         DO            
  D:0023H         SYMBOL        KeyNumber
  D:0024H         SYMBOL        temp
  -------         ENDDO         
  C:016AH         LINE#         138
  C:016AH         LINE#         139
  C:016AH         LINE#         140
  C:016DH         LINE#         146
  C:0170H         LINE#         147
  C:0173H         LINE#         148
  C:0176H         LINE#         149
  C:017CH         LINE#         150
  C:017CH         LINE#         151
  C:0183H         LINE#         152
  C:0186H         LINE#         153
  C:0189H         LINE#         154
  C:018FH         LINE#         155
  C:018FH         LINE#         156
  C:0192H         LINE#         157
  C:01A3H         LINE#         158
  C:01A3H         LINE#         159
  C:01A8H         LINE#         160
  C:01ADH         LINE#         161
  C:01B2H         LINE#         162
  C:01B5H         LINE#         163
  C:01B5H         LINE#         164
  C:01BBH         LINE#         165
  C:01BBH         LINE#         166
  C:01BEH         LINE#         167
  C:01C1H         LINE#         168
  C:01C3H         LINE#         169
  C:01C3H         LINE#         170
  C:01C3H         LINE#         173
  C:01C6H         LINE#         174
  C:01C9H         LINE#         175
  C:01CCH         LINE#         176
  C:01D2H         LINE#         177
  C:01D2H         LINE#         178
BL51 BANKED LINKER/LOCATER V6.22.4.0                                                  05/14/2024  14:34:27  PAGE 8


  C:01D9H         LINE#         179
  C:01DCH         LINE#         180
  C:01DFH         LINE#         181
  C:01E5H         LINE#         182
  C:01E5H         LINE#         183
  C:01E8H         LINE#         184
  C:01F9H         LINE#         185
  C:01F9H         LINE#         186
  C:01FEH         LINE#         187
  C:0203H         LINE#         188
  C:0208H         LINE#         189
  C:020BH         LINE#         190
  C:020BH         LINE#         191
  C:0211H         LINE#         192
  C:0211H         LINE#         193
  C:0214H         LINE#         194
  C:0217H         LINE#         195
  C:0219H         LINE#         196
  C:0219H         LINE#         197
  C:0219H         LINE#         200
  C:021CH         LINE#         201
  C:021FH         LINE#         202
  C:0222H         LINE#         203
  C:0228H         LINE#         204
  C:0228H         LINE#         205
  C:022FH         LINE#         206
  C:0232H         LINE#         207
  C:0235H         LINE#         208
  C:023BH         LINE#         209
  C:023BH         LINE#         210
  C:023EH         LINE#         211
  C:024FH         LINE#         212
  C:024FH         LINE#         213
  C:0254H         LINE#         214
  C:0259H         LINE#         215
  C:025EH         LINE#         216
  C:0261H         LINE#         217
  C:0261H         LINE#         218
  C:0267H         LINE#         219
  C:0267H         LINE#         220
  C:026AH         LINE#         221
  C:026DH         LINE#         222
  C:026FH         LINE#         223
  C:026FH         LINE#         224
  C:026FH         LINE#         227
  C:0272H         LINE#         228
  C:0275H         LINE#         229
  C:0278H         LINE#         230
  C:027EH         LINE#         231
  C:027EH         LINE#         232
  C:0285H         LINE#         233
  C:0288H         LINE#         234
  C:028BH         LINE#         235
  C:0291H         LINE#         236
  C:0291H         LINE#         237
  C:0294H         LINE#         238
  C:02A5H         LINE#         239
BL51 BANKED LINKER/LOCATER V6.22.4.0                                                  05/14/2024  14:34:27  PAGE 9


  C:02A5H         LINE#         240
  C:02AAH         LINE#         241
  C:02AFH         LINE#         242
  C:02B4H         LINE#         243
  C:02B7H         LINE#         244
  C:02B7H         LINE#         245
  C:02BDH         LINE#         246
  C:02BDH         LINE#         247
  C:02C0H         LINE#         248
  C:02C3H         LINE#         249
  C:02C5H         LINE#         250
  C:02C5H         LINE#         251
  C:02C5H         LINE#         252
  C:02C7H         LINE#         253
  -------         ENDPROC       KEY16_SCAN_PROTEUS
  -------         ENDMOD        KEY

Program Size: data=39.0 xdata=0 code=1110
LINK/LOCATE RUN COMPLETE.  0 WARNING(S),  0 ERROR(S)
