BL51 BANKED LINKER/LOCATER V6.22.4.0                                                    05/11/2024  16:13:17  PAGE 1


BL51 BANKED LINKER/LOCATER V6.22.4.0, INVOKED BY:
E:\KEIL_V5\C51\BIN\BL51.EXE .\Objects\main.obj TO .\Objects\LED PRINT (.\Listings\LED.m51) RAMSIZE (256)


MEMORY MODEL: SMALL


INPUT MODULES INCLUDED:
  .\Objects\main.obj (MAIN)
  E:\KEIL_V5\C51\LIB\C51S.LIB (?C_STARTUP)
  E:\KEIL_V5\C51\LIB\C51S.LIB (?C_INIT)


LINK MAP OF MODULE:  .\Objects\LED (MAIN)


            TYPE    BASE      LENGTH    RELOCATION   SEGMENT NAME
            -----------------------------------------------------

            * * * * * * *   D A T A   M E M O R Y   * * * * * * *
            REG     0000H     0008H     ABSOLUTE     "REG BANK 0"
            DATA    0008H     0002H     UNIT         ?DT?MAIN
            IDATA   000AH     0001H     UNIT         ?STACK

            * * * * * * *   C O D E   M E M O R Y   * * * * * * *
            CODE    0000H     0003H     ABSOLUTE     
            CODE    0003H     008CH     UNIT         ?C_C51STARTUP
            CODE    008FH     005BH     UNIT         ?PR?MAIN?MAIN
            CODE    00EAH     001BH     UNIT         ?PR?_DELAY?MAIN
            CODE    0105H     0019H     UNIT         ?PR?SYSTEM_INIT?MAIN
            CODE    011EH     0007H     UNIT         ?C_INITSEG



OVERLAY MAP OF MODULE:   .\Objects\LED (MAIN)


SEGMENT
  +--> CALLED SEGMENT
---------------------
?C_C51STARTUP
  +--> ?PR?MAIN?MAIN
  +--> ?C_INITSEG

?PR?MAIN?MAIN
  +--> ?PR?SYSTEM_INIT?MAIN
  +--> ?PR?_DELAY?MAIN



SYMBOL TABLE OF MODULE:  .\Objects\LED (MAIN)

  VALUE           TYPE          NAME
  ----------------------------------

  -------         MODULE        MAIN
  C:0000H         SYMBOL        _ICE_DUMMY_
  C:0105H         PUBLIC        System_Init
BL51 BANKED LINKER/LOCATER V6.22.4.0                                                  05/11/2024  16:13:17  PAGE 2


  D:0080H         PUBLIC        P0
  D:0090H         PUBLIC        P1
  D:00A0H         PUBLIC        P2
  D:00B0H         PUBLIC        P3
  D:00C0H         PUBLIC        P4
  D:00C8H         PUBLIC        P5
  D:00E8H         PUBLIC        P6
  D:00F8H         PUBLIC        P7
  D:00A8H         PUBLIC        IE
  D:00B8H         PUBLIC        IP
  D:00D8H         PUBLIC        CCON
  C:008FH         PUBLIC        main
  D:0098H         PUBLIC        SCON
  D:0088H         PUBLIC        TCON
  D:0008H         PUBLIC        i
  D:0009H         PUBLIC        j
  C:00F0H         PUBLIC        _Delay
  D:00D0H         PUBLIC        PSW
  -------         PROC          L?0024
  -------         ENDPROC       L?0024
  -------         PROC          _DELAY
  D:0006H         SYMBOL        xms
  -------         DO            
  D:0005H         SYMBOL        i
  D:0004H         SYMBOL        j
  -------         ENDDO         
  C:00F0H         LINE#         4
  C:00F0H         LINE#         5
  C:00F0H         LINE#         7
  C:00FAH         LINE#         8
  C:00FAH         LINE#         9
  C:00FCH         LINE#         10
  C:00FEH         LINE#         12
  C:00FEH         LINE#         13
  C:0100H         LINE#         14
  C:0102H         LINE#         15
  C:0104H         LINE#         16
  -------         ENDPROC       _DELAY
  -------         PROC          SYSTEM_INIT
  C:0105H         LINE#         18
  C:0105H         LINE#         19
  C:0105H         LINE#         20
  C:010BH         LINE#         21
  C:0111H         LINE#         22
  C:0117H         LINE#         23
  C:011DH         LINE#         24
  -------         ENDPROC       SYSTEM_INIT
  -------         PROC          MAIN
  C:008FH         LINE#         28
  C:008FH         LINE#         29
  C:008FH         LINE#         30
  C:0092H         LINE#         32
  C:0092H         LINE#         33
  C:0092H         LINE#         35
  C:0095H         LINE#         36
  C:0098H         LINE#         37
  C:009FH         LINE#         39
BL51 BANKED LINKER/LOCATER V6.22.4.0                                                  05/11/2024  16:13:17  PAGE 3


  C:00A2H         LINE#         40
  C:00A5H         LINE#         41
  C:00ACH         LINE#         43
  C:00AFH         LINE#         44
  C:00B2H         LINE#         45
  C:00B2H         LINE#         46
  C:00C0H         LINE#         47
  C:00C3H         LINE#         48
  C:00CCH         LINE#         50
  C:00D6H         LINE#         51
  C:00D6H         LINE#         52
  C:00E3H         LINE#         53
  C:00E6H         LINE#         54
  -------         ENDPROC       MAIN
  -------         ENDMOD        MAIN

Program Size: data=11.0 xdata=0 code=293
LINK/LOCATE RUN COMPLETE.  0 WARNING(S),  0 ERROR(S)
