BL51 BANKED LINKER/LOCATER V6.22.4.0                                                    05/09/2024  15:05:57  PAGE 1


BL51 BANKED LINKER/LOCATER V6.22.4.0, INVOKED BY:
E:\KEIL_V5\C51\BIN\BL51.EXE .\Objects\main.obj TO .\Objects\Project PRINT (.\Listings\Project.m51) RAMSIZE (256)


MEMORY MODEL: SMALL


INPUT MODULES INCLUDED:
  .\Objects\main.obj (MAIN)
  E:\KEIL_V5\C51\LIB\C51S.LIB (?C_STARTUP)
  E:\KEIL_V5\C51\LIB\C51S.LIB (?C_INIT)


LINK MAP OF MODULE:  .\Objects\Project (MAIN)


            TYPE    BASE      LENGTH    RELOCATION   SEGMENT NAME
            -----------------------------------------------------

            * * * * * * *   D A T A   M E M O R Y   * * * * * * *
            REG     0000H     0008H     ABSOLUTE     "REG BANK 0"
            DATA    0008H     0002H     UNIT         ?DT?MAIN
            IDATA   000AH     0001H     UNIT         ?STACK

            * * * * * * *   C O D E   M E M O R Y   * * * * * * *
            CODE    0000H     0003H     ABSOLUTE     
            CODE    0003H     008CH     UNIT         ?C_C51STARTUP
            CODE    008FH     0016H     UNIT         ?PR?MAIN?MAIN
            CODE    00A5H     0015H     UNIT         ?PR?_DELAY?MAIN
            CODE    00BAH     0007H     UNIT         ?C_INITSEG



OVERLAY MAP OF MODULE:   .\Objects\Project (MAIN)


SEGMENT
  +--> CALLED SEGMENT
---------------------
?C_C51STARTUP
  +--> ?PR?MAIN?MAIN
  +--> ?C_INITSEG

?PR?MAIN?MAIN
  +--> ?PR?_DELAY?MAIN



SYMBOL TABLE OF MODULE:  .\Objects\Project (MAIN)

  VALUE           TYPE          NAME
  ----------------------------------

  -------         MODULE        MAIN
  C:0000H         SYMBOL        _ICE_DUMMY_
  D:00A0H         PUBLIC        P2
  C:008FH         PUBLIC        main
  D:0008H         PUBLIC        i
BL51 BANKED LINKER/LOCATER V6.22.4.0                                                  05/09/2024  15:05:57  PAGE 2


  D:0009H         PUBLIC        j
  C:00A5H         PUBLIC        _Delay
  -------         PROC          _DELAY
  D:0006H         SYMBOL        xms
  -------         DO            
  D:0005H         SYMBOL        i
  D:0004H         SYMBOL        j
  -------         ENDDO         
  C:00A5H         LINE#         13
  C:00A5H         LINE#         14
  C:00A5H         LINE#         16
  C:00AFH         LINE#         17
  C:00AFH         LINE#         18
  C:00B1H         LINE#         19
  C:00B3H         LINE#         21
  C:00B3H         LINE#         22
  C:00B5H         LINE#         23
  C:00B7H         LINE#         24
  C:00B9H         LINE#         25
  -------         ENDPROC       _DELAY
  -------         PROC          MAIN
  C:008FH         LINE#         28
  C:008FH         LINE#         29
  C:008FH         LINE#         30
  C:008FH         LINE#         31
  C:008FH         LINE#         32
  C:0099H         LINE#         33
  C:00A3H         LINE#         34
  -------         ENDPROC       MAIN
  -------         ENDMOD        MAIN

Program Size: data=11.0 xdata=0 code=193
LINK/LOCATE RUN COMPLETE.  0 WARNING(S),  0 ERROR(S)
