BL51 BANKED LINKER/LOCATER V6.22.4.0                                                    05/27/2024  10:06:23  PAGE 1


BL51 BANKED LINKER/LOCATER V6.22.4.0, INVOKED BY:
E:\KEIL_V5\C51\BIN\BL51.EXE .\Objects\main.obj, .\Objects\smg.obj, .\Objects\OneWire.obj, .\Objects\DS18B20.obj, .\Objec
>> ts\Timer.obj TO .\Objects\Project PRINT (.\Listings\Project.m51) RAMSIZE (256) DISABLEWARNING (16)


MEMORY MODEL: SMALL WITH FLOATING POINT ARITHMETIC


INPUT MODULES INCLUDED:
  .\Objects\main.obj (MAIN)
  .\Objects\smg.obj (SMG)
  .\Objects\OneWire.obj (ONEWIRE)
  .\Objects\DS18B20.obj (DS18B20)
  .\Objects\Timer.obj (TIMER)
  E:\KEIL_V5\C51\LIB\C51FPS.LIB (?C?FPMUL)
  E:\KEIL_V5\C51\LIB\C51FPS.LIB (?C?FPDIV)
  E:\KEIL_V5\C51\LIB\C51FPS.LIB (?C?FPCMP)
  E:\KEIL_V5\C51\LIB\C51FPS.LIB (?C?FPNEG)
  E:\KEIL_V5\C51\LIB\C51FPS.LIB (?C?FCAST)
  E:\KEIL_V5\C51\LIB\C51FPS.LIB (?C?CASTF)
  E:\KEIL_V5\C51\LIB\C51FPS.LIB (?C?FPGETOPN)
  E:\KEIL_V5\C51\LIB\C51S.LIB (?C_STARTUP)
  E:\KEIL_V5\C51\LIB\C51S.LIB (?C?SLDIV)
  E:\KEIL_V5\C51\LIB\C51S.LIB (?C?LNEG)
  E:\KEIL_V5\C51\LIB\C51S.LIB (?C_INIT)
  E:\KEIL_V5\C51\LIB\C51S.LIB (?C?ULDIV)


LINK MAP OF MODULE:  .\Objects\Project (MAIN)


            TYPE    BASE      LENGTH    RELOCATION   SEGMENT NAME
            -----------------------------------------------------

            * * * * * * *   D A T A   M E M O R Y   * * * * * * *
            REG     0000H     0008H     ABSOLUTE     "REG BANK 0"
            DATA    0008H     001CH     UNIT         ?DT?SMG
            DATA    0024H     0010H     UNIT         ?DT?MAIN
            DATA    0034H     0010H     UNIT         _DATA_GROUP_
            IDATA   0044H     0001H     UNIT         ?STACK

            * * * * * * *   C O D E   M E M O R Y   * * * * * * *
            CODE    0000H     0003H     ABSOLUTE     
                    0003H     0008H                  *** GAP ***
            CODE    000BH     0003H     ABSOLUTE     
            CODE    000EH     03CBH     UNIT         ?C?LIB_CODE
            CODE    03D9H     02A0H     UNIT         ?PR?_SMG_SHOWFLOATNUM?SMG
            CODE    0679H     008CH     UNIT         ?C_C51STARTUP
            CODE    0705H     0070H     UNIT         ?PR?MAIN?MAIN
            CODE    0775H     006FH     UNIT         ?PR?_NIXIE?SMG
            CODE    07E4H     0044H     UNIT         ?C?LDIV
            CODE    0828H     0033H     UNIT         ?PR?TIMER0_ROUNTINE?MAIN
            CODE    085BH     002BH     UNIT         ?C_INITSEG
            CODE    0886H     002BH     UNIT         ?PR?DS18B20_READT?DS18B20
            CODE    08B1H     001DH     UNIT         ?PR?ONEWIRE_RECEIVEBYTE?ONEWIRE
            CODE    08CEH     0019H     UNIT         ?PR?ALL_INIT?SMG
            CODE    08E7H     0019H     UNIT         ?PR?_ONEWIRE_SENDBYTE?ONEWIRE
            CODE    0900H     0019H     UNIT         ?PR?POWER_ALL_INIT?TIMER
BL51 BANKED LINKER/LOCATER V6.22.4.0                                                  05/27/2024  10:06:23  PAGE 2


            CODE    0919H     0018H     UNIT         ?PR?_DELAY_MS?SMG
            CODE    0931H     0018H     UNIT         ?PR?ONEWIRE_RECEIVEBIT?ONEWIRE
            CODE    0949H     0017H     UNIT         ?PR?ONEWIRE_INIT?ONEWIRE
            CODE    0960H     0015H     UNIT         ?PR?TIMER0_INIT?TIMER
            CODE    0975H     0012H     UNIT         ?PR?_ONEWIRE_SENDBIT?ONEWIRE
            CODE    0987H     0012H     UNIT         ?PR?TIMER2_INIT?TIMER
            CODE    0999H     000DH     UNIT         ?PR?DS18B20_CONVERTT?DS18B20
            CODE    09A6H     000BH     UNIT         ?PR?DELAY500US?ONEWIRE



OVERLAY MAP OF MODULE:   .\Objects\Project (MAIN)


SEGMENT                                   DATA_GROUP 
  +--> CALLED SEGMENT                   START    LENGTH
-------------------------------------------------------
?C_C51STARTUP                           -----    -----
  +--> ?PR?MAIN?MAIN
  +--> ?C_INITSEG

?PR?MAIN?MAIN                           -----    -----
  +--> ?PR?ALL_INIT?SMG
  +--> ?PR?ONEWIRE_INIT?ONEWIRE
  +--> ?PR?DS18B20_CONVERTT?DS18B20
  +--> ?PR?_DELAY_MS?SMG
  +--> ?PR?TIMER0_INIT?TIMER
  +--> ?PR?DS18B20_READT?DS18B20
  +--> ?PR?_SMG_SHOWFLOATNUM?SMG

?PR?ONEWIRE_INIT?ONEWIRE                -----    -----
  +--> ?PR?DELAY500US?ONEWIRE

?PR?DS18B20_CONVERTT?DS18B20            -----    -----
  +--> ?PR?ONEWIRE_INIT?ONEWIRE
  +--> ?PR?_ONEWIRE_SENDBYTE?ONEWIRE

?PR?_ONEWIRE_SENDBYTE?ONEWIRE           -----    -----
  +--> ?PR?_ONEWIRE_SENDBIT?ONEWIRE

?PR?DS18B20_READT?DS18B20               0034H    0001H
  +--> ?PR?ONEWIRE_INIT?ONEWIRE
  +--> ?PR?_ONEWIRE_SENDBYTE?ONEWIRE
  +--> ?PR?ONEWIRE_RECEIVEBYTE?ONEWIRE

?PR?ONEWIRE_RECEIVEBYTE?ONEWIRE         -----    -----
  +--> ?PR?ONEWIRE_RECEIVEBIT?ONEWIRE

?PR?_SMG_SHOWFLOATNUM?SMG               0034H    0010H
  +--> ?PR?_NIXIE?SMG

?PR?_NIXIE?SMG                          -----    -----
  +--> ?PR?_DELAY_MS?SMG



SYMBOL TABLE OF MODULE:  .\Objects\Project (MAIN)
BL51 BANKED LINKER/LOCATER V6.22.4.0                                                  05/27/2024  10:06:23  PAGE 3



  VALUE           TYPE          NAME
  ----------------------------------

  -------         MODULE        MAIN
  C:0000H         SYMBOL        _ICE_DUMMY_
  D:0080H         PUBLIC        P0
  D:0090H         PUBLIC        P1
  D:00A0H         PUBLIC        P2
  D:00B0H         PUBLIC        P3
  D:00C0H         PUBLIC        P4
  D:00C8H         PUBLIC        P5
  D:00E8H         PUBLIC        P6
  D:00F8H         PUBLIC        P7
  D:00A8H         PUBLIC        IE
  D:0026H         PUBLIC        Temp
  D:00B8H         PUBLIC        IP
  D:002AH         PUBLIC        Temperature_Min
  D:002EH         PUBLIC        Temperature_Max
  D:0032H         PUBLIC        buzzer_flag
  D:00D8H         PUBLIC        CCON
  C:0705H         PUBLIC        main
  D:0033H         PUBLIC        ack
  D:0098H         PUBLIC        SCON
  D:0088H         PUBLIC        TCON
  C:0828H         PUBLIC        Timer0_Rountine
  D:00D0H         PUBLIC        PSW
  -------         PROC          MAIN
  C:0705H         LINE#         13
  C:0705H         LINE#         14
  C:0705H         LINE#         15
  C:0708H         LINE#         16
  C:070DH         LINE#         18
  C:0710H         LINE#         19
  C:0717H         LINE#         21
  C:071AH         LINE#         23
  C:071AH         LINE#         24
  C:071AH         LINE#         25
  C:071DH         LINE#         26
  C:0728H         LINE#         28
  C:072BH         LINE#         31
  C:0757H         LINE#         32
  C:0757H         LINE#         35
  C:075AH         LINE#         37
  C:075EH         LINE#         38
  C:0763H         LINE#         39
  C:0768H         LINE#         40
  C:076BH         LINE#         41
  C:076DH         LINE#         43
  C:076DH         LINE#         45
  C:0770H         LINE#         46
  C:0773H         LINE#         47
  C:0773H         LINE#         48
  -------         ENDPROC       MAIN
  -------         PROC          TIMER0_ROUNTINE
  -------         DO            
  D:0024H         SYMBOL        T0Count0
BL51 BANKED LINKER/LOCATER V6.22.4.0                                                  05/27/2024  10:06:23  PAGE 4


  -------         ENDDO         
  C:0828H         LINE#         51
  C:0831H         LINE#         55
  C:0839H         LINE#         56
  C:0842H         LINE#         57
  C:0842H         LINE#         59
  C:084EH         LINE#         60
  C:0854H         LINE#         61
  C:0854H         LINE#         62
  -------         ENDPROC       TIMER0_ROUNTINE
  -------         ENDMOD        MAIN

  -------         MODULE        SMG
  C:0000H         SYMBOL        _ICE_DUMMY_
  C:0779H         PUBLIC        _Nixie
  D:0080H         PUBLIC        P0
  D:0090H         PUBLIC        P1
  D:00A0H         PUBLIC        P2
  D:00B0H         PUBLIC        P3
  D:00C0H         PUBLIC        P4
  D:00C8H         PUBLIC        P5
  D:00E8H         PUBLIC        P6
  D:00F8H         PUBLIC        P7
  D:00A8H         PUBLIC        IE
  C:08CEH         PUBLIC        All_Init
  C:03D9H         PUBLIC        _SMG_ShowFloatNum
  D:00B8H         PUBLIC        IP
  D:00D8H         PUBLIC        CCON
  C:0919H         PUBLIC        _Delay_ms
  D:0098H         PUBLIC        SCON
  D:0088H         PUBLIC        TCON
  D:0008H         PUBLIC        NixieTable
  D:00D0H         PUBLIC        PSW
  -------         PROC          _DELAY_MS
  D:0006H         SYMBOL        xms
  -------         DO            
  D:0005H         SYMBOL        i
  D:0004H         SYMBOL        j
  -------         ENDDO         
  C:0919H         LINE#         5
  C:0919H         LINE#         6
  C:0919H         LINE#         8
  C:0923H         LINE#         9
  C:0926H         LINE#         10
  C:092AH         LINE#         11
  C:092AH         LINE#         12
  C:092CH         LINE#         13
  C:092EH         LINE#         14
  C:0930H         LINE#         15
  -------         ENDPROC       _DELAY_MS
  C:0775H         SYMBOL        L?0047
  -------         PROC          L?0046
  -------         ENDPROC       L?0046
  C:0775H         SYMBOL        L?0047
  -------         PROC          _NIXIE
  D:0007H         SYMBOL        location
  D:0005H         SYMBOL        number
BL51 BANKED LINKER/LOCATER V6.22.4.0                                                  05/27/2024  10:06:23  PAGE 5


  C:0779H         LINE#         34
  C:0779H         LINE#         35
  C:0779H         LINE#         36
  C:077CH         LINE#         37
  C:07A9H         LINE#         38
  C:07A9H         LINE#         39
  C:07AEH         LINE#         40
  C:07B3H         LINE#         41
  C:07B8H         LINE#         42
  C:07BDH         LINE#         43
  C:07C2H         LINE#         44
  C:07C7H         LINE#         45
  C:07CCH         LINE#         46
  C:07CFH         LINE#         47
  C:07CFH         LINE#         48
  C:07D2H         LINE#         49
  C:07D9H         LINE#         50
  C:07E0H         LINE#         51
  C:07E3H         LINE#         52
  -------         ENDPROC       _NIXIE
  -------         PROC          _SMG_SHOWFLOATNUM
  D:0034H         SYMBOL        num
  -------         DO            
  D:0038H         SYMBOL        Sep_Num
  D:0040H         SYMBOL        temp
  -------         ENDDO         
  C:03D9H         LINE#         55
  C:03E1H         LINE#         56
  C:03E1H         LINE#         60
  C:03F3H         LINE#         61
  C:0404H         LINE#         63
  C:0424H         LINE#         66
  C:0444H         LINE#         67
  C:0464H         LINE#         68
  C:0483H         LINE#         69
  C:04A2H         LINE#         70
  C:04C0H         LINE#         71
  C:04DEH         LINE#         72
  C:04F3H         LINE#         75
  C:04FDH         LINE#         76
  C:0504H         LINE#         77
  C:050BH         LINE#         78
  C:0512H         LINE#         80
  C:053FH         LINE#         81
  C:056EH         LINE#         82
  C:059CH         LINE#         83
  C:05D2H         LINE#         84
  C:060EH         LINE#         85
  C:0649H         LINE#         86
  C:0678H         LINE#         87
  -------         ENDPROC       _SMG_SHOWFLOATNUM
  -------         PROC          ALL_INIT
  C:08CEH         LINE#         133
  C:08CEH         LINE#         134
  C:08CEH         LINE#         135
  C:08D1H         LINE#         136
  C:08D4H         LINE#         138
BL51 BANKED LINKER/LOCATER V6.22.4.0                                                  05/27/2024  10:06:23  PAGE 6


  C:08D7H         LINE#         139
  C:08DAH         LINE#         141
  C:08DDH         LINE#         142
  C:08E0H         LINE#         143
  C:08E3H         LINE#         144
  C:08E6H         LINE#         145
  -------         ENDPROC       ALL_INIT
  -------         ENDMOD        SMG

  -------         MODULE        ONEWIRE
  C:0000H         SYMBOL        _ICE_DUMMY_
  D:0080H         PUBLIC        P0
  D:0090H         PUBLIC        P1
  D:00A0H         PUBLIC        P2
  D:00B0H         PUBLIC        P3
  D:00C0H         PUBLIC        P4
  D:00C8H         PUBLIC        P5
  D:00E8H         PUBLIC        P6
  C:0931H         PUBLIC        OneWire_ReceiveBit
  D:00F8H         PUBLIC        P7
  D:00A8H         PUBLIC        IE
  D:00B8H         PUBLIC        IP
  D:00D8H         PUBLIC        CCON
  B:0090H.4       PUBLIC        OneWire_DQ
  C:0949H         PUBLIC        OneWire_Init
  D:0098H         PUBLIC        SCON
  D:0088H         PUBLIC        TCON
  C:08E7H         PUBLIC        _OneWire_SendByte
  C:0975H         PUBLIC        _OneWire_SendBit
  C:09A6H         PUBLIC        Delay500us
  D:00D0H         PUBLIC        PSW
  C:08B1H         PUBLIC        OneWire_ReceiveByte
  -------         PROC          DELAY500US
  -------         DO            
  D:0007H         SYMBOL        i
  D:0006H         SYMBOL        j
  -------         ENDDO         
  C:09A6H         LINE#         6
  C:09A6H         LINE#         7
  C:09A6H         LINE#         10
  C:09A8H         LINE#         11
  C:09ACH         LINE#         13
  C:09ACH         LINE#         14
  C:09AEH         LINE#         15
  C:09B0H         LINE#         16
  -------         ENDPROC       DELAY500US
  -------         PROC          ONEWIRE_INIT
  -------         DO            
  D:0005H         SYMBOL        AckBit
  D:0007H         SYMBOL        i
  -------         ENDDO         
  C:0949H         LINE#         23
  C:0949H         LINE#         24
  C:0949H         LINE#         27
  C:094BH         LINE#         28
  C:094DH         LINE#         29
  C:0950H         LINE#         31
BL51 BANKED LINKER/LOCATER V6.22.4.0                                                  05/27/2024  10:06:23  PAGE 7


  C:0952H         LINE#         32
  C:0956H         LINE#         33
  C:095BH         LINE#         35
  C:095EH         LINE#         36
  C:095FH         LINE#         37
  -------         ENDPROC       ONEWIRE_INIT
  -------         PROC          _ONEWIRE_SENDBIT
  D:0007H         SYMBOL        Bit
  -------         DO            
  D:0006H         SYMBOL        i
  -------         ENDDO         
  C:0975H         LINE#         44
  C:0975H         LINE#         45
  C:0975H         LINE#         47
  C:0977H         LINE#         48
  C:097BH         LINE#         49
  C:0980H         LINE#         50
  C:0984H         LINE#         51
  C:0986H         LINE#         52
  -------         ENDPROC       _ONEWIRE_SENDBIT
  -------         PROC          ONEWIRE_RECEIVEBIT
  -------         DO            
  D:0007H         SYMBOL        i
  D:0006H         SYMBOL        Bit
  -------         ENDDO         
  C:0931H         LINE#         58
  C:0931H         LINE#         59
  C:0931H         LINE#         62
  C:0933H         LINE#         63
  C:0937H         LINE#         65
  C:0939H         LINE#         66
  C:093DH         LINE#         67
  C:0942H         LINE#         68
  C:0946H         LINE#         71
  C:0948H         LINE#         72
  -------         ENDPROC       ONEWIRE_RECEIVEBIT
  -------         PROC          _ONEWIRE_SENDBYTE
  D:0005H         SYMBOL        Byte
  -------         DO            
  D:0004H         SYMBOL        i
  -------         ENDDO         
  C:08E7H         LINE#         75
  C:08E9H         LINE#         76
  C:08E9H         LINE#         78
  C:08EBH         LINE#         79
  C:08EBH         LINE#         80
  C:08FBH         LINE#         81
  C:08FFH         LINE#         82
  -------         ENDPROC       _ONEWIRE_SENDBYTE
  -------         PROC          ONEWIRE_RECEIVEBYTE
  -------         DO            
  D:0004H         SYMBOL        i
  D:0005H         SYMBOL        Byte
  -------         ENDDO         
  C:08B1H         LINE#         85
  C:08B1H         LINE#         86
  C:08B1H         LINE#         88
BL51 BANKED LINKER/LOCATER V6.22.4.0                                                  05/27/2024  10:06:23  PAGE 8


  C:08B3H         LINE#         89
  C:08B4H         LINE#         90
  C:08B4H         LINE#         92
  C:08BAH         LINE#         93
  C:08C7H         LINE#         94
  C:08CBH         LINE#         95
  C:08CDH         LINE#         96
  -------         ENDPROC       ONEWIRE_RECEIVEBYTE
  -------         ENDMOD        ONEWIRE

  -------         MODULE        DS18B20
  C:0000H         SYMBOL        _ICE_DUMMY_
  D:0080H         PUBLIC        P0
  D:0090H         PUBLIC        P1
  D:00A0H         PUBLIC        P2
  D:00B0H         PUBLIC        P3
  D:00C0H         PUBLIC        P4
  D:00C8H         PUBLIC        P5
  D:00E8H         PUBLIC        P6
  D:00F8H         PUBLIC        P7
  D:00A8H         PUBLIC        IE
  D:00B8H         PUBLIC        IP
  D:00D8H         PUBLIC        CCON
  D:0098H         PUBLIC        SCON
  D:0088H         PUBLIC        TCON
  C:0999H         PUBLIC        DS18B20_ConvertT
  C:0886H         PUBLIC        DS18B20_ReadT
  D:00D0H         PUBLIC        PSW
  -------         PROC          DS18B20_CONVERTT
  C:0999H         LINE#         7
  C:0999H         LINE#         8
  C:0999H         LINE#         9
  C:099CH         LINE#         10
  C:09A1H         LINE#         11
  -------         ENDPROC       DS18B20_CONVERTT
  -------         PROC          DS18B20_READT
  -------         DO            
  D:0034H         SYMBOL        TLSB
  D:0007H         SYMBOL        TMSB
  D:0006H         SYMBOL        temp
  D:0004H         SYMBOL        T
  -------         ENDDO         
  C:0886H         LINE#         14
  C:0886H         LINE#         15
  C:0886H         LINE#         21
  C:0889H         LINE#         22
  C:088EH         LINE#         23
  C:0893H         LINE#         26
  C:0898H         LINE#         27
  C:089BH         LINE#         32
  C:08A0H         LINE#         37
  -------         ENDPROC       DS18B20_READT
  -------         ENDMOD        DS18B20

  -------         MODULE        TIMER
  C:0000H         SYMBOL        _ICE_DUMMY_
  D:0080H         PUBLIC        P0
BL51 BANKED LINKER/LOCATER V6.22.4.0                                                  05/27/2024  10:06:23  PAGE 9


  D:0090H         PUBLIC        P1
  C:0900H         PUBLIC        Power_All_Init
  D:00A0H         PUBLIC        P2
  D:00B0H         PUBLIC        P3
  D:00C0H         PUBLIC        P4
  D:00C8H         PUBLIC        P5
  B:00A8H.7       PUBLIC        EA
  D:00E8H         PUBLIC        P6
  D:00F8H         PUBLIC        P7
  D:00A8H         PUBLIC        IE
  D:00B8H         PUBLIC        IP
  D:00D8H         PUBLIC        CCON
  C:0960H         PUBLIC        Timer0_Init
  C:0987H         PUBLIC        Timer2_Init
  D:0098H         PUBLIC        SCON
  D:0089H         PUBLIC        TMOD
  D:0088H         PUBLIC        TCON
  D:00AFH         PUBLIC        IE2
  D:008EH         PUBLIC        AUXR
  B:00A8H.1       PUBLIC        ET0
  B:0088H.5       PUBLIC        TF0
  D:008CH         PUBLIC        TH0
  D:00D6H         PUBLIC        T2H
  D:008AH         PUBLIC        TL0
  D:00D7H         PUBLIC        T2L
  B:0088H.4       PUBLIC        TR0
  D:00D0H         PUBLIC        PSW
  -------         PROC          POWER_ALL_INIT
  C:0900H         LINE#         4
  C:0900H         LINE#         5
  C:0900H         LINE#         6
  C:0906H         LINE#         8
  C:090CH         LINE#         10
  C:0912H         LINE#         12
  C:0918H         LINE#         14
  -------         ENDPROC       POWER_ALL_INIT
  -------         PROC          TIMER0_INIT
  C:0960H         LINE#         29
  C:0960H         LINE#         30
  C:0960H         LINE#         31
  C:0963H         LINE#         32
  C:0966H         LINE#         33
  C:0969H         LINE#         34
  C:096CH         LINE#         35
  C:096EH         LINE#         36
  C:0970H         LINE#         37
  C:0972H         LINE#         38
  C:0974H         LINE#         39
  -------         ENDPROC       TIMER0_INIT
  -------         PROC          TIMER2_INIT
  C:0987H         LINE#         66
  C:0987H         LINE#         67
  C:0987H         LINE#         68
  C:098AH         LINE#         69
  C:098DH         LINE#         70
  C:0990H         LINE#         71
  C:0993H         LINE#         72
BL51 BANKED LINKER/LOCATER V6.22.4.0                                                  05/27/2024  10:06:23  PAGE 10


  C:0996H         LINE#         73
  C:0998H         LINE#         74
  -------         ENDPROC       TIMER2_INIT
  -------         ENDMOD        TIMER

  -------         MODULE        ?C?FPMUL
  C:000EH         PUBLIC        ?C?FPMUL
  -------         ENDMOD        ?C?FPMUL

  -------         MODULE        ?C?FPDIV
  C:0117H         PUBLIC        ?C?FPDIV
  -------         ENDMOD        ?C?FPDIV

  -------         MODULE        ?C?FPCMP
  C:01B6H         PUBLIC        ?C?FPCMP
  C:01B4H         PUBLIC        ?C?FPCMP3
  -------         ENDMOD        ?C?FPCMP

  -------         MODULE        ?C?FPNEG
  C:022DH         PUBLIC        ?C?FPNEG
  -------         ENDMOD        ?C?FPNEG

  -------         MODULE        ?C?FCAST
  C:0248H         PUBLIC        ?C?FCASTC
  C:0243H         PUBLIC        ?C?FCASTI
  C:023EH         PUBLIC        ?C?FCASTL
  -------         ENDMOD        ?C?FCAST

  -------         MODULE        ?C?CASTF
  C:027CH         PUBLIC        ?C?CASTF
  -------         ENDMOD        ?C?CASTF

  -------         MODULE        ?C?SLDIV
  C:07E4H         PUBLIC        ?C?SLDIV
  -------         ENDMOD        ?C?SLDIV

  -------         MODULE        ?C?LNEG
  C:02FDH         PUBLIC        ?C?LNEG
  -------         ENDMOD        ?C?LNEG

  -------         MODULE        ?C?ULDIV
  C:0347H         PUBLIC        ?C?ULDIV
  -------         ENDMOD        ?C?ULDIV

Program Size: data=69.0 xdata=0 code=2473
LINK/LOCATE RUN COMPLETE.  0 WARNING(S),  0 ERROR(S)
