C51 COMPILER V9.60.7.0   TIMER                                                             04/23/2024 16:02:46 PAGE 1   


C51 COMPILER V9.60.7.0, COMPILATION OF MODULE TIMER
OBJECT MODULE PLACED IN .\Objects\Timer.obj
COMPILER INVOKED BY: E:\Keil_v5\C51\BIN\C51.EXE Timer.c OPTIMIZE(8,SPEED) BROWSE DEBUG OBJECTEXTEND PRINT(.\Listings\Tim
                    -er.lst) OBJECT(.\Objects\Timer.obj)

line level    source

   1          #include "Timer.h"
   2          
   3          //上电全部初始化
   4          void Power_All_Init(void)
   5          {
   6   1              P2=0XA0;P0=0X00;//关闭蜂鸣器、继电器  1010 0000
   7   1        
   8   1              P2=0X80;P0=0XFF;//关闭LED灯
   9   1                 //关573锁存器        
  10   1              P2=0XC0;P0=0XFF;//选择所有数码管
  11   1       
  12   1              P2=0XE0;P0=0XFF;//关闭所有数码管
  13   1              
  14   1      }
  15          //void Timer0_Init(void)        //NE555测频率时候的定时器0初始化
  16          //{
  17          //      // 定时器0 16位自动重载 1T
  18          ////    AUXR |= 0x80;           //定时器时钟1T模式
  19          //      TMOD = 0x04;            //设置定时器模式
  20          //      TL0 = 0;                //设置定时初始值
  21          //      TH0 = 0;                //设置定时初始值
  22          //      TF0 = 0;                //清除TF0标志
  23          //      TR0 = 1;                //定时器0开始计数
  24          ////    ET0 = 1;
  25          ////    EA = 1; 
  26          //}
  27          
  28          //定时器0初始化
  29          void Timer0_Init(void)  //1毫秒@12.000MHz
  30          {
  31   1              AUXR |= 0x80;   //定时器时钟1T模式
  32   1              TMOD &= 0xF0;   //设置定时器模式
  33   1              TL0 = 0x20;             //设置定时初始值
  34   1              TH0 = 0xD1;             //设置定时初始值
  35   1              TF0 = 0;                //清除TF0标志
  36   1              TR0 = 1;                //定时器0开始计时
  37   1              ET0 = 1;                //允许T0溢出中断
  38   1              EA      = 1;            //总中断
  39   1      }
  40          
  41          /*
  42          //定时器0中断服务函数模板
  43          void Timer0_Rountine(void) interrupt 1
  44          {
  45                  static unsigned int T0Count0;
  46          
  47                  T0Count0++;
  48                  if(T0Count0 >= 200)
  49                  {
  50                          //执行操作
  51                          T0Count0 = 0;   //软件复位
  52                  }
  53          }       
  54          */
C51 COMPILER V9.60.7.0   TIMER                                                             04/23/2024 16:02:46 PAGE 2   

  55          
  56          //定时器1初始化
  57          
  58          /*
  59          // 定时器1 中断服务函数模板
  60          
  61          */
  62          
  63          
  64          
  65          //定时器2初始化
  66          void Timer2_Init(void)          //1毫秒@12.000MHz
  67          {
  68   1              AUXR |= 0x04;   //定时器时钟1T模式
  69   1              T2L = 0x20;             //设置定时初始值
  70   1              T2H = 0xD1;             //设置定时初始值
  71   1              AUXR |= 0x10;   //定时器2开始计时
  72   1              IE2  |= 0x04;   //打开定时器2的中断
  73   1              EA = 1;                 //打开总中断
  74   1      }
  75          
  76          /*
  77          // 定时器2 中断服务函数模板
  78          void Timer2_Routine() interrupt 12      // 1T 16位自动重载
  79          {
  80              static unsigned int T2Count0;       
  81                  T2Count0++;     
  82                  if(T2Count0 >= 1000)
  83                  {
  84                          //执行操作
  85                          T2Count0 = 0;
  86                  }
  87          }
  88          */
  89          
  90          
  91          //串口初始化
  92          
  93          /*
  94          //串口中断
  95          
  96          */


MODULE INFORMATION:   STATIC OVERLAYABLE
   CODE SIZE        =     64    ----
   CONSTANT SIZE    =   ----    ----
   XDATA SIZE       =   ----    ----
   PDATA SIZE       =   ----    ----
   DATA SIZE        =   ----    ----
   IDATA SIZE       =   ----    ----
   BIT SIZE         =   ----    ----
END OF MODULE INFORMATION.


C51 COMPILATION COMPLETE.  0 WARNING(S),  0 ERROR(S)
