BL51 BANKED LINKER/LOCATER V6.22.4.0                                                    05/27/2024  09:48:24  PAGE 1


BL51 BANKED LINKER/LOCATER V6.22.4.0, INVOKED BY:
E:\KEIL_V5\C51\BIN\BL51.EXE .\Objects\main.obj TO .\Objects\Project PRINT (.\Listings\Project.m51) RAMSIZE (256)


MEMORY MODEL: SMALL


INPUT MODULES INCLUDED:
  .\Objects\main.obj (MAIN)
  E:\KEIL_V5\C51\LIB\C51S.LIB (?C_STARTUP)
  E:\KEIL_V5\C51\LIB\C51S.LIB (?C_INIT)


LINK MAP OF MODULE:  .\Objects\Project (MAIN)


            TYPE    BASE      LENGTH    RELOCATION   SEGMENT NAME
            -----------------------------------------------------

            * * * * * * *   D A T A   M E M O R Y   * * * * * * *
            REG     0000H     0008H     ABSOLUTE     "REG BANK 0"
            DATA    0008H     0004H     UNIT         ?DT?MAIN
            IDATA   000CH     0001H     UNIT         ?STACK

            * * * * * * *   C O D E   M E M O R Y   * * * * * * *
            CODE    0000H     0003H     ABSOLUTE     
            CODE    0003H     0107H     UNIT         ?PR?MATRIXKEY?MAIN
            CODE    010AH     008CH     UNIT         ?C_C51STARTUP
            CODE    0196H     0019H     UNIT         ?PR?_DELAY?MAIN
            CODE    01AFH     0016H     UNIT         ?CO?MAIN
            CODE    01C5H     0011H     UNIT         ?PR?MAIN?MAIN
            CODE    01D6H     000AH     UNIT         ?C_INITSEG



OVERLAY MAP OF MODULE:   .\Objects\Project (MAIN)


SEGMENT
  +--> CALLED SEGMENT
---------------------
?C_C51STARTUP
  +--> ?PR?MAIN?MAIN
  +--> ?C_INITSEG

?PR?MAIN?MAIN
  +--> ?PR?MATRIXKEY?MAIN
  +--> ?CO?MAIN

?PR?MATRIXKEY?MAIN
  +--> ?PR?_DELAY?MAIN



SYMBOL TABLE OF MODULE:  .\Objects\Project (MAIN)

  VALUE           TYPE          NAME
  ----------------------------------
BL51 BANKED LINKER/LOCATER V6.22.4.0                                                  05/27/2024  09:48:24  PAGE 2



  -------         MODULE        MAIN
  C:0000H         SYMBOL        _ICE_DUMMY_
  D:0080H         PUBLIC        P0
  D:0090H         PUBLIC        P1
  B:0090H.0       PUBLIC        P1_0
  B:0090H.1       PUBLIC        P1_1
  B:0090H.2       PUBLIC        P1_2
  B:0090H.3       PUBLIC        P1_3
  B:0090H.4       PUBLIC        P1_4
  B:0090H.5       PUBLIC        P1_5
  B:0090H.6       PUBLIC        P1_6
  B:0090H.7       PUBLIC        P1_7
  C:01C5H         PUBLIC        main
  C:0003H         PUBLIC        Matrixkey
  D:0009H         PUBLIC        key
  C:01AFH         PUBLIC        SMG_Yang
  D:000AH         PUBLIC        i
  D:000BH         PUBLIC        j
  C:019AH         PUBLIC        _Delay
  C:0196H         SYMBOL        L?0063
  -------         PROC          L?0062
  -------         ENDPROC       L?0062
  C:0196H         SYMBOL        L?0063
  -------         PROC          _DELAY
  D:0006H         SYMBOL        xms
  -------         DO            
  D:0005H         SYMBOL        i
  D:0004H         SYMBOL        j
  -------         ENDDO         
  C:019AH         LINE#         8
  C:019AH         LINE#         9
  C:019AH         LINE#         11
  C:01A4H         LINE#         12
  C:01A4H         LINE#         13
  C:01A6H         LINE#         14
  C:01A8H         LINE#         16
  C:01A8H         LINE#         17
  C:01AAH         LINE#         18
  C:01ACH         LINE#         19
  C:01AEH         LINE#         20
  -------         ENDPROC       _DELAY
  -------         PROC          MATRIXKEY
  -------         DO            
  D:0008H         SYMBOL        Keynumber
  -------         ENDDO         
  C:0003H         LINE#         29
  C:0003H         LINE#         30
  C:0003H         LINE#         32
  C:0006H         LINE#         33
  C:0008H         LINE#         34
  C:0017H         LINE#         35
  C:0026H         LINE#         36
  C:0035H         LINE#         37
  C:0044H         LINE#         39
  C:0047H         LINE#         40
  C:0049H         LINE#         41
BL51 BANKED LINKER/LOCATER V6.22.4.0                                                  05/27/2024  09:48:24  PAGE 3


  C:0058H         LINE#         42
  C:0067H         LINE#         43
  C:0076H         LINE#         44
  C:0085H         LINE#         46
  C:0088H         LINE#         47
  C:008AH         LINE#         48
  C:0099H         LINE#         49
  C:00A8H         LINE#         50
  C:00B7H         LINE#         51
  C:00C6H         LINE#         53
  C:00C9H         LINE#         54
  C:00CBH         LINE#         55
  C:00DAH         LINE#         56
  C:00E9H         LINE#         57
  C:00F8H         LINE#         58
  C:0107H         LINE#         59
  C:0109H         LINE#         60
  -------         ENDPROC       MATRIXKEY
  -------         PROC          MAIN
  C:01C5H         LINE#         77
  C:01C5H         LINE#         78
  C:01C5H         LINE#         79
  C:01C8H         LINE#         80
  C:01C8H         LINE#         81
  C:01C8H         LINE#         82
  C:01CDH         LINE#         83
  C:01D4H         LINE#         86
  -------         ENDPROC       MAIN
  -------         ENDMOD        MAIN

Program Size: data=13.0 xdata=0 code=480
LINK/LOCATE RUN COMPLETE.  0 WARNING(S),  0 ERROR(S)
