BL51 BANKED LINKER/LOCATER V6.22.4.0                                                    05/09/2024  15:25:46  PAGE 1


BL51 BANKED LINKER/LOCATER V6.22.4.0, INVOKED BY:
E:\KEIL_V5\C51\BIN\BL51.EXE .\Objects\main.obj TO .\Objects\Project PRINT (.\Listings\Project.m51) RAMSIZE (256)


MEMORY MODEL: SMALL


INPUT MODULES INCLUDED:
  .\Objects\main.obj (MAIN)
  E:\KEIL_V5\C51\LIB\C51S.LIB (?C_STARTUP)
  E:\KEIL_V5\C51\LIB\C51S.LIB (?C_INIT)


LINK MAP OF MODULE:  .\Objects\Project (MAIN)


            TYPE    BASE      LENGTH    RELOCATION   SEGMENT NAME
            -----------------------------------------------------

            * * * * * * *   D A T A   M E M O R Y   * * * * * * *
            REG     0000H     0008H     ABSOLUTE     "REG BANK 0"
            DATA    0008H     0002H     UNIT         ?DT?MAIN
            IDATA   000AH     0001H     UNIT         ?STACK

            * * * * * * *   C O D E   M E M O R Y   * * * * * * *
            CODE    0000H     0003H     ABSOLUTE     
            CODE    0003H     008CH     UNIT         ?C_C51STARTUP
            CODE    008FH     0023H     UNIT         ?PR?MAIN?MAIN
            CODE    00B2H     0019H     UNIT         ?PR?_DELAY?MAIN
            CODE    00CBH     0007H     UNIT         ?C_INITSEG



OVERLAY MAP OF MODULE:   .\Objects\Project (MAIN)


SEGMENT
  +--> CALLED SEGMENT
---------------------
?C_C51STARTUP
  +--> ?PR?MAIN?MAIN
  +--> ?C_INITSEG

?PR?MAIN?MAIN
  +--> ?PR?_DELAY?MAIN



SYMBOL TABLE OF MODULE:  .\Objects\Project (MAIN)

  VALUE           TYPE          NAME
  ----------------------------------

  -------         MODULE        MAIN
  C:0000H         SYMBOL        _ICE_DUMMY_
  D:0080H         PUBLIC        P0
  D:0090H         PUBLIC        P1
  D:00A0H         PUBLIC        P2
BL51 BANKED LINKER/LOCATER V6.22.4.0                                                  05/09/2024  15:25:46  PAGE 2


  D:00B0H         PUBLIC        P3
  C:008FH         PUBLIC        main
  D:0008H         PUBLIC        i
  D:0009H         PUBLIC        j
  C:00B6H         PUBLIC        _Delay
  C:00B2H         SYMBOL        L?0014
  -------         PROC          L?0013
  -------         ENDPROC       L?0013
  C:00B2H         SYMBOL        L?0014
  -------         PROC          _DELAY
  D:0006H         SYMBOL        xms
  -------         DO            
  D:0005H         SYMBOL        i
  D:0004H         SYMBOL        j
  -------         ENDDO         
  C:00B6H         LINE#         2
  C:00B6H         LINE#         3
  C:00B6H         LINE#         5
  C:00C0H         LINE#         6
  C:00C0H         LINE#         7
  C:00C2H         LINE#         8
  C:00C4H         LINE#         10
  C:00C4H         LINE#         11
  C:00C6H         LINE#         12
  C:00C8H         LINE#         13
  C:00CAH         LINE#         14
  -------         ENDPROC       _DELAY
  -------         PROC          MAIN
  C:008FH         LINE#         16
  C:008FH         LINE#         17
  C:008FH         LINE#         18
  C:0098H         LINE#         19
  C:0098H         LINE#         20
  C:0098H         LINE#         21
  C:009EH         LINE#         22
  C:00A4H         LINE#         23
  C:00AAH         LINE#         24
  C:00B0H         LINE#         25
  -------         ENDPROC       MAIN
  -------         ENDMOD        MAIN

Program Size: data=11.0 xdata=0 code=210
LINK/LOCATE RUN COMPLETE.  0 WARNING(S),  0 ERROR(S)
